{
  "contractName": "Decentragram",
  "abi": [
    {
      "constant": true,
      "inputs": [],
      "name": "name",
      "outputs": [
        {
          "name": "",
          "type": "string"
        }
      ],
      "payable": false,
      "stateMutability": "view",
      "type": "function",
      "signature": "0x06fdde03"
    },
    {
      "constant": true,
      "inputs": [
        {
          "name": "",
          "type": "uint256"
        }
      ],
      "name": "images",
      "outputs": [
        {
          "name": "id",
          "type": "uint256"
        }
      ],
      "payable": false,
      "stateMutability": "view",
      "type": "function",
      "signature": "0x84856482"
    },
    {
      "constant": true,
      "inputs": [],
      "name": "imageCount",
      "outputs": [
        {
          "name": "",
          "type": "uint256"
        }
      ],
      "payable": false,
      "stateMutability": "view",
      "type": "function",
      "signature": "0x92053b63"
    },
    {
      "inputs": [],
      "payable": false,
      "stateMutability": "nonpayable",
      "type": "constructor",
      "signature": "constructor"
    },
    {
      "anonymous": false,
      "inputs": [
        {
          "indexed": false,
          "name": "id",
          "type": "uint256"
        }
      ],
      "name": "ImageCreated",
      "type": "event",
      "signature": "0xe0b022509e73ace4ab70c88ecee4653803475d2d3b77b1f28457e9014e634262"
    },
    {
      "constant": false,
      "inputs": [
        {
          "name": "_imgHash",
          "type": "string"
        }
      ],
      "name": "uploadImage",
      "outputs": [],
      "payable": false,
      "stateMutability": "nonpayable",
      "type": "function",
      "signature": "0xe740c8a0"
    }
  ],
  "bytecode": "0x6080604052600060015534801561001557600080fd5b506040805190810160405280600c81526020017f446563656e7472616772616d000000000000000000000000000000000000000081525060009080519060200190610061929190610067565b5061010c565b828054600181600116156101000203166002900490600052602060002090601f016020900481019282601f106100a857805160ff19168380011785556100d6565b828001600101855582156100d6579182015b828111156100d55782518255916020019190600101906100ba565b5b5090506100e391906100e7565b5090565b61010991905b808211156101055760008160009055506001016100ed565b5090565b90565b6103758061011b6000396000f3fe608060405260043610610062576000357c0100000000000000000000000000000000000000000000000000000000900463ffffffff16806306fdde031461006757806384856482146100f757806392053b6314610146578063e740c8a014610171575b600080fd5b34801561007357600080fd5b5061007c610239565b6040518080602001828103825283818151815260200191508051906020019080838360005b838110156100bc5780820151818401526020810190506100a1565b50505050905090810190601f1680156100e95780820380516001836020036101000a031916815260200191505b509250505060405180910390f35b34801561010357600080fd5b506101306004803603602081101561011a57600080fd5b81019080803590602001909291905050506102d7565b6040518082815260200191505060405180910390f35b34801561015257600080fd5b5061015b6102f5565b6040518082815260200191505060405180910390f35b34801561017d57600080fd5b506102376004803603602081101561019457600080fd5b81019080803590602001906401000000008111156101b157600080fd5b8201836020820111156101c357600080fd5b803590602001918460018302840111640100000000831117156101e557600080fd5b91908080601f016020809104026020016040519081016040528093929190818152602001838380828437600081840152601f19601f8201169050808301925050505050505091929192905050506102fb565b005b60008054600181600116156101000203166002900480601f0160208091040260200160405190810160405280929190818152602001828054600181600116156101000203166002900480156102cf5780601f106102a4576101008083540402835291602001916102cf565b820191906000526020600020905b8154815290600101906020018083116102b257829003601f168201915b505050505081565b60026020528060005260406000206000915090508060000154905081565b60015481565b6001600081548092919060010191905055507fe0b022509e73ace4ab70c88ecee4653803475d2d3b77b1f28457e9014e6342626001546040518082815260200191505060405180910390a15056fea165627a7a72305820e670e327c56a014f35e41a97c18b677c44dd2b30c5ff7afbbe647922ba8f0f510029",
  "source": "pragma solidity ^0.5.0;\r\n\r\ncontract Decentragram {\r\n  string public name;\r\n  uint public imageCount = 0;\r\n  mapping(uint => Image) public images;\r\n\r\n  struct Image {\r\n    uint id;\r\n  }\r\n\r\n  event ImageCreated(\r\n    uint id\r\n  );\r\n\r\n\r\n  constructor() public {\r\n    name = \"Decentragram\";\r\n  }\r\n\r\n  function uploadImage(string memory _imgHash) public {\r\n    // Increment image id\r\n    imageCount ++;\r\n\r\n    emit ImageCreated(imageCount);\r\n  }\r\n\r\n}",
  "sourcePath": "C:/Users/zivyu/blockchain proj/blockchain/blockchain/src/contracts/Decentragram.sol",
  "compiler": {
    "name": "solc",
    "version": "0.5.0+commit.1d4f565a.Emscripten.clang"
  },
  "schemaVersion": "3.0.1",
  "updatedAt": "2021-12-16T02:52:16.075Z",
  "devdoc": {
    "methods": {}
  },
  "userdoc": {
    "methods": {}
  }
}