{
  "contractName": "GiveNTake",
  "abi": [
    {
      "inputs": [],
      "payable": false,
      "stateMutability": "nonpayable",
      "type": "constructor"
    },
    {
      "anonymous": false,
      "inputs": [
        {
          "indexed": false,
          "internalType": "uint256",
          "name": "id",
          "type": "uint256"
        },
        {
          "indexed": false,
          "internalType": "string",
          "name": "headline",
          "type": "string"
        },
        {
          "indexed": false,
          "internalType": "string",
          "name": "content",
          "type": "string"
        },
        {
          "indexed": false,
          "internalType": "uint256",
          "name": "price",
          "type": "uint256"
        },
        {
          "indexed": false,
          "internalType": "uint256",
          "name": "soldCount",
          "type": "uint256"
        },
        {
          "indexed": false,
          "internalType": "address payable",
          "name": "owner",
          "type": "address"
        }
      ],
      "name": "CardBought",
      "type": "event"
    },
    {
      "anonymous": false,
      "inputs": [
        {
          "indexed": false,
          "internalType": "uint256",
          "name": "id",
          "type": "uint256"
        },
        {
          "indexed": false,
          "internalType": "string",
          "name": "headline",
          "type": "string"
        },
        {
          "indexed": false,
          "internalType": "string",
          "name": "content",
          "type": "string"
        },
        {
          "indexed": false,
          "internalType": "uint256",
          "name": "price",
          "type": "uint256"
        },
        {
          "indexed": false,
          "internalType": "uint256",
          "name": "soldCount",
          "type": "uint256"
        },
        {
          "indexed": false,
          "internalType": "address payable",
          "name": "owner",
          "type": "address"
        },
        {
          "indexed": false,
          "internalType": "uint256",
          "name": "isActive",
          "type": "uint256"
        }
      ],
      "name": "CardCreated",
      "type": "event"
    },
    {
      "anonymous": false,
      "inputs": [
        {
          "indexed": false,
          "internalType": "uint256",
          "name": "id",
          "type": "uint256"
        },
        {
          "indexed": false,
          "internalType": "string",
          "name": "name",
          "type": "string"
        },
        {
          "indexed": false,
          "internalType": "address",
          "name": "owner",
          "type": "address"
        }
      ],
      "name": "UserAdded",
      "type": "event"
    },
    {
      "anonymous": false,
      "inputs": [
        {
          "indexed": false,
          "internalType": "address",
          "name": "userAddress",
          "type": "address"
        },
        {
          "indexed": false,
          "internalType": "string",
          "name": "name",
          "type": "string"
        },
        {
          "indexed": false,
          "internalType": "uint256",
          "name": "rate",
          "type": "uint256"
        }
      ],
      "name": "UserRated",
      "type": "event"
    },
    {
      "constant": true,
      "inputs": [
        {
          "internalType": "uint256",
          "name": "",
          "type": "uint256"
        }
      ],
      "name": "cards",
      "outputs": [
        {
          "internalType": "uint256",
          "name": "id",
          "type": "uint256"
        },
        {
          "internalType": "string",
          "name": "headline",
          "type": "string"
        },
        {
          "internalType": "string",
          "name": "content",
          "type": "string"
        },
        {
          "internalType": "uint256",
          "name": "price",
          "type": "uint256"
        },
        {
          "internalType": "uint256",
          "name": "soldCount",
          "type": "uint256"
        },
        {
          "internalType": "address payable",
          "name": "owner",
          "type": "address"
        },
        {
          "internalType": "uint256",
          "name": "ownerRate",
          "type": "uint256"
        },
        {
          "internalType": "uint256",
          "name": "isActive",
          "type": "uint256"
        }
      ],
      "payable": false,
      "stateMutability": "view",
      "type": "function"
    },
    {
      "constant": true,
      "inputs": [],
      "name": "cardsCount",
      "outputs": [
        {
          "internalType": "uint256",
          "name": "",
          "type": "uint256"
        }
      ],
      "payable": false,
      "stateMutability": "view",
      "type": "function"
    },
    {
      "constant": true,
      "inputs": [
        {
          "internalType": "uint256",
          "name": "",
          "type": "uint256"
        }
      ],
      "name": "transactions",
      "outputs": [
        {
          "components": [
            {
              "internalType": "uint256",
              "name": "id",
              "type": "uint256"
            },
            {
              "internalType": "string",
              "name": "name",
              "type": "string"
            },
            {
              "internalType": "uint256",
              "name": "rate",
              "type": "uint256"
            },
            {
              "internalType": "address",
              "name": "owner",
              "type": "address"
            },
            {
              "internalType": "uint256",
              "name": "cardAmount",
              "type": "uint256"
            },
            {
              "internalType": "uint256[]",
              "name": "mycards",
              "type": "uint256[]"
            },
            {
              "internalType": "uint256",
              "name": "ratingCount",
              "type": "uint256"
            }
          ],
          "internalType": "struct GiveNTake.User",
          "name": "buyer",
          "type": "tuple"
        },
        {
          "components": [
            {
              "internalType": "uint256",
              "name": "id",
              "type": "uint256"
            },
            {
              "internalType": "string",
              "name": "headline",
              "type": "string"
            },
            {
              "internalType": "string",
              "name": "content",
              "type": "string"
            },
            {
              "internalType": "uint256",
              "name": "price",
              "type": "uint256"
            },
            {
              "internalType": "uint256",
              "name": "soldCount",
              "type": "uint256"
            },
            {
              "internalType": "address payable",
              "name": "owner",
              "type": "address"
            },
            {
              "internalType": "uint256",
              "name": "ownerRate",
              "type": "uint256"
            },
            {
              "internalType": "uint256",
              "name": "isActive",
              "type": "uint256"
            }
          ],
          "internalType": "struct GiveNTake.Card",
          "name": "card",
          "type": "tuple"
        }
      ],
      "payable": false,
      "stateMutability": "view",
      "type": "function"
    },
    {
      "constant": true,
      "inputs": [],
      "name": "transactionsCount",
      "outputs": [
        {
          "internalType": "uint256",
          "name": "",
          "type": "uint256"
        }
      ],
      "payable": false,
      "stateMutability": "view",
      "type": "function"
    },
    {
      "constant": true,
      "inputs": [
        {
          "internalType": "uint256",
          "name": "",
          "type": "uint256"
        }
      ],
      "name": "users",
      "outputs": [
        {
          "internalType": "uint256",
          "name": "id",
          "type": "uint256"
        },
        {
          "internalType": "string",
          "name": "name",
          "type": "string"
        },
        {
          "internalType": "uint256",
          "name": "rate",
          "type": "uint256"
        },
        {
          "internalType": "address",
          "name": "owner",
          "type": "address"
        },
        {
          "internalType": "uint256",
          "name": "cardAmount",
          "type": "uint256"
        },
        {
          "internalType": "uint256",
          "name": "ratingCount",
          "type": "uint256"
        }
      ],
      "payable": false,
      "stateMutability": "view",
      "type": "function"
    },
    {
      "constant": true,
      "inputs": [
        {
          "internalType": "address",
          "name": "",
          "type": "address"
        }
      ],
      "name": "usersByAddress",
      "outputs": [
        {
          "internalType": "uint256",
          "name": "id",
          "type": "uint256"
        },
        {
          "internalType": "string",
          "name": "name",
          "type": "string"
        },
        {
          "internalType": "uint256",
          "name": "rate",
          "type": "uint256"
        },
        {
          "internalType": "address",
          "name": "owner",
          "type": "address"
        },
        {
          "internalType": "uint256",
          "name": "cardAmount",
          "type": "uint256"
        },
        {
          "internalType": "uint256",
          "name": "ratingCount",
          "type": "uint256"
        }
      ],
      "payable": false,
      "stateMutability": "view",
      "type": "function"
    },
    {
      "constant": true,
      "inputs": [],
      "name": "usersCount",
      "outputs": [
        {
          "internalType": "uint256",
          "name": "",
          "type": "uint256"
        }
      ],
      "payable": false,
      "stateMutability": "view",
      "type": "function"
    },
    {
      "constant": false,
      "inputs": [
        {
          "internalType": "string",
          "name": "_name",
          "type": "string"
        }
      ],
      "name": "addUser",
      "outputs": [],
      "payable": false,
      "stateMutability": "nonpayable",
      "type": "function"
    },
    {
      "constant": false,
      "inputs": [
        {
          "internalType": "string",
          "name": "_headline",
          "type": "string"
        },
        {
          "internalType": "string",
          "name": "_content",
          "type": "string"
        },
        {
          "internalType": "uint256",
          "name": "_price",
          "type": "uint256"
        }
      ],
      "name": "postOffer",
      "outputs": [],
      "payable": false,
      "stateMutability": "nonpayable",
      "type": "function"
    },
    {
      "constant": false,
      "inputs": [
        {
          "internalType": "uint256",
          "name": "_cardId",
          "type": "uint256"
        }
      ],
      "name": "buyOffer",
      "outputs": [],
      "payable": true,
      "stateMutability": "payable",
      "type": "function"
    },
    {
      "constant": false,
      "inputs": [
        {
          "internalType": "address",
          "name": "_sellerAddress",
          "type": "address"
        }
      ],
      "name": "rateSeller",
      "outputs": [],
      "payable": false,
      "stateMutability": "nonpayable",
      "type": "function"
    },
    {
      "constant": false,
      "inputs": [
        {
          "internalType": "uint256",
          "name": "id",
          "type": "uint256"
        }
      ],
      "name": "deleteCard",
      "outputs": [],
      "payable": false,
      "stateMutability": "nonpayable",
      "type": "function"
    }
  ],
  "bytecode": "0x6080604052600080556000600155600060025534801561001e57600080fd5b506130d78061002e6000396000f3fe6080604052600436106100a75760003560e01c80637f1d08cc116100645780637f1d08cc146101d65780638dc10768146101ff5780639ace38c2146102435780639ecce70014610281578063bd6c67561461029d578063fd99a746146102c8576100a7565b806309f5d7ac146100ac57806318b8275a146100d5578063365b98b2146100fe5780635e1acf65146101405780636ba13a82146101695780636bf693c414610194575b600080fd5b3480156100b857600080fd5b506100d360048036036100ce91908101906127df565b6102f3565b005b3480156100e157600080fd5b506100fc60048036036100f79190810190612808565b610a91565b005b34801561010a57600080fd5b50610125600480360361012091908101906128c8565b610d17565b60405161013796959493929190612e39565b60405180910390f35b34801561014c57600080fd5b50610167600480360361016291908101906128c8565b610e0b565b005b34801561017557600080fd5b5061017e610ec8565b60405161018b9190612c68565b60405180910390f35b3480156101a057600080fd5b506101bb60048036036101b691908101906127df565b610ece565b6040516101cd96959493929190612e39565b60405180910390f35b3480156101e257600080fd5b506101fd60048036036101f89190810190612849565b610fc2565b005b34801561020b57600080fd5b50610226600480360361022191908101906128c8565b6116dd565b60405161023a989796959493929190612dad565b60405180910390f35b34801561024f57600080fd5b5061026a600480360361026591908101906128c8565b611875565b604051610278929190612c31565b60405180910390f35b61029b600480360361029691908101906128c8565b611bf2565b005b3480156102a957600080fd5b506102b2612302565b6040516102bf9190612c68565b60405180910390f35b3480156102d457600080fd5b506102dd612308565b6040516102ea9190612c68565b60405180910390f35b600660008273ffffffffffffffffffffffffffffffffffffffff1673ffffffffffffffffffffffffffffffffffffffff1681526020019081526020016000206002016000815480929190600101919050555061034d61244e565b600660008373ffffffffffffffffffffffffffffffffffffffff1673ffffffffffffffffffffffffffffffffffffffff1681526020019081526020016000206040518060e001604052908160008201548152602001600182018054600181600116156101000203166002900480601f01602080910402602001604051908101604052809291908181526020018280546001816001161561010002031660029004801561043a5780601f1061040f5761010080835404028352916020019161043a565b820191906000526020600020905b81548152906001019060200180831161041d57829003601f168201915b50505050508152602001600282015481526020016003820160009054906101000a900473ffffffffffffffffffffffffffffffffffffffff1673ffffffffffffffffffffffffffffffffffffffff1673ffffffffffffffffffffffffffffffffffffffff16815260200160048201548152602001600582018054806020026020016040519081016040528092919081815260200182805480156104fc57602002820191906000526020600020905b8154815260200190600101908083116104e8575b505050505081526020016006820154815250509050600460008260000151815260200190815260200160002060020160008154809291906001019190505550600080905061054861244e565b600660003373ffffffffffffffffffffffffffffffffffffffff1673ffffffffffffffffffffffffffffffffffffffff1681526020019081526020016000206040518060e001604052908160008201548152602001600182018054600181600116156101000203166002900480601f0160208091040260200160405190810160405280929190818152602001828054600181600116156101000203166002900480156106355780601f1061060a57610100808354040283529160200191610635565b820191906000526020600020905b81548152906001019060200180831161061857829003601f168201915b50505050508152602001600282015481526020016003820160009054906101000a900473ffffffffffffffffffffffffffffffffffffffff1673ffffffffffffffffffffffffffffffffffffffff1673ffffffffffffffffffffffffffffffffffffffff16815260200160048201548152602001600582018054806020026020016040519081016040528092919081815260200182805480156106f757602002820191906000526020600020905b8154815260200190600101908083116106e3575b505050505081526020016006820154815250509050600060038260c001518161071c57fe5b0614156107385780604001805180919060010181525050600191505b8060c00180518091906001018152505080600660003373ffffffffffffffffffffffffffffffffffffffff1673ffffffffffffffffffffffffffffffffffffffff1681526020019081526020016000206000820151816000015560208201518160010190805190602001906107ae9291906124a1565b506040820151816002015560608201518160030160006101000a81548173ffffffffffffffffffffffffffffffffffffffff021916908373ffffffffffffffffffffffffffffffffffffffff1602179055506080820151816004015560a0820151816005019080519060200190610826929190612521565b5060c082015181600601559050508060046000836000015181526020019081526020016000206000820151816000015560208201518160010190805190602001906108729291906124a1565b506040820151816002015560608201518160030160006101000a81548173ffffffffffffffffffffffffffffffffffffffff021916908373ffffffffffffffffffffffffffffffffffffffff1602179055506080820151816004015560a08201518160050190805190602001906108ea929190612521565b5060c08201518160060155905050600060019050600190505b6001548111610a47578473ffffffffffffffffffffffffffffffffffffffff166005600083815260200190815260200160002060050160009054906101000a900473ffffffffffffffffffffffffffffffffffffffff1673ffffffffffffffffffffffffffffffffffffffff16141561099d5760056000828152602001908152602001600020600601600081548092919060010191905055505b600183148015610a0e57503373ffffffffffffffffffffffffffffffffffffffff166005600083815260200190815260200160002060050160009054906101000a900473ffffffffffffffffffffffffffffffffffffffff1673ffffffffffffffffffffffffffffffffffffffff16145b15610a3a5760056000828152602001908152602001600020600601600081548092919060010191905055505b8080600101915050610903565b7f490c23cb4472f593b5661d96d329f01d41ad2871e497b5be0418996229971bf58585602001518660400151604051610a8293929190612bf3565b60405180910390a15050505050565b600080815480929190600101919050555060606040518060e001604052806000548152602001838152602001600081526020013373ffffffffffffffffffffffffffffffffffffffff1681526020016000815260200182815260200160008152506004600080548152602001908152602001600020600082015181600001556020820151816001019080519060200190610b2c9291906124a1565b506040820151816002015560608201518160030160006101000a81548173ffffffffffffffffffffffffffffffffffffffff021916908373ffffffffffffffffffffffffffffffffffffffff1602179055506080820151816004015560a0820151816005019080519060200190610ba4929190612521565b5060c082015181600601559050506004600080548152602001908152602001600020600660003373ffffffffffffffffffffffffffffffffffffffff1673ffffffffffffffffffffffffffffffffffffffff1681526020019081526020016000206000820154816000015560018201816001019080546001816001161561010002031660029004610c3692919061256e565b50600282015481600201556003820160009054906101000a900473ffffffffffffffffffffffffffffffffffffffff168160030160006101000a81548173ffffffffffffffffffffffffffffffffffffffff021916908373ffffffffffffffffffffffffffffffffffffffff160217905550600482015481600401556005820181600501908054610cc89291906125f5565b50600682015481600601559050507f514af2a82370fd69109ef67206736f3880c4f9c15d2f2acd798b782ae37fdc5a6000548333604051610d0b93929190612c83565b60405180910390a15050565b6004602052806000526040600020600091509050806000015490806001018054600181600116156101000203166002900480601f016020809104026020016040519081016040528092919081815260200182805460018160011615610100020316600290048015610dc95780601f10610d9e57610100808354040283529160200191610dc9565b820191906000526020600020905b815481529060010190602001808311610dac57829003601f168201915b5050505050908060020154908060030160009054906101000a900473ffffffffffffffffffffffffffffffffffffffff16908060040154908060060154905086565b60006005600083815260200190815260200160002090506000816007018190555060056000838152602001908152602001600020600080820160009055600182016000610e589190612647565b600282016000610e689190612647565b600382016000905560048201600090556005820160006101000a81549073ffffffffffffffffffffffffffffffffffffffff0219169055600682016000905560078201600090555050600160008154809291906001900391905055505050565b60005481565b6006602052806000526040600020600091509050806000015490806001018054600181600116156101000203166002900480601f016020809104026020016040519081016040528092919081815260200182805460018160011615610100020316600290048015610f805780601f10610f5557610100808354040283529160200191610f80565b820191906000526020600020905b815481529060010190602001808311610f6357829003601f168201915b5050505050908060020154908060030160009054906101000a900473ffffffffffffffffffffffffffffffffffffffff16908060040154908060060154905086565b600160008154809291906001019190505550610fdc61244e565b600660003373ffffffffffffffffffffffffffffffffffffffff1673ffffffffffffffffffffffffffffffffffffffff1681526020019081526020016000206040518060e001604052908160008201548152602001600182018054600181600116156101000203166002900480601f0160208091040260200160405190810160405280929190818152602001828054600181600116156101000203166002900480156110c95780601f1061109e576101008083540402835291602001916110c9565b820191906000526020600020905b8154815290600101906020018083116110ac57829003601f168201915b50505050508152602001600282015481526020016003820160009054906101000a900473ffffffffffffffffffffffffffffffffffffffff1673ffffffffffffffffffffffffffffffffffffffff1673ffffffffffffffffffffffffffffffffffffffff168152602001600482015481526020016005820180548060200260200160405190810160405280929190818152602001828054801561118b57602002820191906000526020600020905b815481526020019060010190808311611177575b5050505050815260200160068201548152505090506000816040015190506040518061010001604052806001548152602001868152602001858152602001848152602001600081526020013373ffffffffffffffffffffffffffffffffffffffff16815260200182815260200160018152506005600060015481526020019081526020016000206000820151816000015560208201518160010190805190602001906112389291906124a1565b5060408201518160020190805190602001906112559291906124a1565b50606082015181600301556080820151816004015560a08201518160050160006101000a81548173ffffffffffffffffffffffffffffffffffffffff021916908373ffffffffffffffffffffffffffffffffffffffff16021790555060c0820151816006015560e082015181600701559050506112d061244e565b600660003373ffffffffffffffffffffffffffffffffffffffff1673ffffffffffffffffffffffffffffffffffffffff1681526020019081526020016000206040518060e001604052908160008201548152602001600182018054600181600116156101000203166002900480601f0160208091040260200160405190810160405280929190818152602001828054600181600116156101000203166002900480156113bd5780601f10611392576101008083540402835291602001916113bd565b820191906000526020600020905b8154815290600101906020018083116113a057829003601f168201915b50505050508152602001600282015481526020016003820160009054906101000a900473ffffffffffffffffffffffffffffffffffffffff1673ffffffffffffffffffffffffffffffffffffffff1673ffffffffffffffffffffffffffffffffffffffff168152602001600482015481526020016005820180548060200260200160405190810160405280929190818152602001828054801561147f57602002820191906000526020600020905b81548152602001906001019080831161146b575b50505050508152602001600682015481525050905061168e81600001516005600060015481526020019081526020016000206040518061010001604052908160008201548152602001600182018054600181600116156101000203166002900480601f0160208091040260200160405190810160405280929190818152602001828054600181600116156101000203166002900480156115605780601f1061153557610100808354040283529160200191611560565b820191906000526020600020905b81548152906001019060200180831161154357829003601f168201915b50505050508152602001600282018054600181600116156101000203166002900480601f0160208091040260200160405190810160405280929190818152602001828054600181600116156101000203166002900480156116025780601f106115d757610100808354040283529160200191611602565b820191906000526020600020905b8154815290600101906020018083116115e557829003601f168201915b5050505050815260200160038201548152602001600482015481526020016005820160009054906101000a900473ffffffffffffffffffffffffffffffffffffffff1673ffffffffffffffffffffffffffffffffffffffff1673ffffffffffffffffffffffffffffffffffffffff1681526020016006820154815260200160078201548152505061230e565b7fb4c33a6a401f72300c2d78746515217417479d3c3c941cb6981b287fc2b3f73b60015487878760003360016040516116cd9796959493929190612cc1565b60405180910390a1505050505050565b6005602052806000526040600020600091509050806000015490806001018054600181600116156101000203166002900480601f01602080910402602001604051908101604052809291908181526020018280546001816001161561010002031660029004801561178f5780601f106117645761010080835404028352916020019161178f565b820191906000526020600020905b81548152906001019060200180831161177257829003601f168201915b505050505090806002018054600181600116156101000203166002900480601f01602080910402602001604051908101604052809291908181526020018280546001816001161561010002031660029004801561182d5780601f106118025761010080835404028352916020019161182d565b820191906000526020600020905b81548152906001019060200180831161181057829003601f168201915b5050505050908060030154908060040154908060050160009054906101000a900473ffffffffffffffffffffffffffffffffffffffff16908060060154908060070154905088565b6003602052806000526040600020600091509050806000016040518060e001604052908160008201548152602001600182018054600181600116156101000203166002900480601f01602080910402602001604051908101604052809291908181526020018280546001816001161561010002031660029004801561193b5780601f106119105761010080835404028352916020019161193b565b820191906000526020600020905b81548152906001019060200180831161191e57829003601f168201915b50505050508152602001600282015481526020016003820160009054906101000a900473ffffffffffffffffffffffffffffffffffffffff1673ffffffffffffffffffffffffffffffffffffffff1673ffffffffffffffffffffffffffffffffffffffff16815260200160048201548152602001600582018054806020026020016040519081016040528092919081815260200182805480156119fd57602002820191906000526020600020905b8154815260200190600101908083116119e9575b5050505050815260200160068201548152505090806007016040518061010001604052908160008201548152602001600182018054600181600116156101000203166002900480601f016020809104026020016040519081016040528092919081815260200182805460018160011615610100020316600290048015611ac45780601f10611a9957610100808354040283529160200191611ac4565b820191906000526020600020905b815481529060010190602001808311611aa757829003601f168201915b50505050508152602001600282018054600181600116156101000203166002900480601f016020809104026020016040519081016040528092919081815260200182805460018160011615610100020316600290048015611b665780601f10611b3b57610100808354040283529160200191611b66565b820191906000526020600020905b815481529060010190602001808311611b4957829003601f168201915b5050505050815260200160038201548152602001600482015481526020016005820160009054906101000a900473ffffffffffffffffffffffffffffffffffffffff1673ffffffffffffffffffffffffffffffffffffffff1673ffffffffffffffffffffffffffffffffffffffff16815260200160068201548152602001600782015481525050905082565b600081118015611c0457506001548111155b611c0d57600080fd5b611c1561268f565b600560008381526020019081526020016000206040518061010001604052908160008201548152602001600182018054600181600116156101000203166002900480601f016020809104026020016040519081016040528092919081815260200182805460018160011615610100020316600290048015611cd75780601f10611cac57610100808354040283529160200191611cd7565b820191906000526020600020905b815481529060010190602001808311611cba57829003601f168201915b50505050508152602001600282018054600181600116156101000203166002900480601f016020809104026020016040519081016040528092919081815260200182805460018160011615610100020316600290048015611d795780601f10611d4e57610100808354040283529160200191611d79565b820191906000526020600020905b815481529060010190602001808311611d5c57829003601f168201915b5050505050815260200160038201548152602001600482015481526020016005820160009054906101000a900473ffffffffffffffffffffffffffffffffffffffff1673ffffffffffffffffffffffffffffffffffffffff1673ffffffffffffffffffffffffffffffffffffffff16815260200160068201548152602001600782015481525050905060008160a0015190508073ffffffffffffffffffffffffffffffffffffffff166108fc349081150290604051600060405180830381858888f19350505050158015611e51573d6000803e3d6000fd5b50816080018051809190600101815250508160056000858152602001908152602001600020600082015181600001556020820151816001019080519060200190611e9c9291906124a1565b506040820151816002019080519060200190611eb99291906124a1565b50606082015181600301556080820151816004015560a08201518160050160006101000a81548173ffffffffffffffffffffffffffffffffffffffff021916908373ffffffffffffffffffffffffffffffffffffffff16021790555060c0820151816006015560e08201518160070155905050600260008154809291906001019190505550611f4661244e565b600660003373ffffffffffffffffffffffffffffffffffffffff1673ffffffffffffffffffffffffffffffffffffffff1681526020019081526020016000206040518060e001604052908160008201548152602001600182018054600181600116156101000203166002900480601f0160208091040260200160405190810160405280929190818152602001828054600181600116156101000203166002900480156120335780601f1061200857610100808354040283529160200191612033565b820191906000526020600020905b81548152906001019060200180831161201657829003601f168201915b50505050508152602001600282015481526020016003820160009054906101000a900473ffffffffffffffffffffffffffffffffffffffff1673ffffffffffffffffffffffffffffffffffffffff1673ffffffffffffffffffffffffffffffffffffffff16815260200160048201548152602001600582018054806020026020016040519081016040528092919081815260200182805480156120f557602002820191906000526020600020905b8154815260200190600101908083116120e1575b5050505050815260200160068201548152505090506040518060400160405280828152602001848152506003600060025481526020019081526020016000206000820151816000016000820151816000015560208201518160010190805190602001906121639291906124a1565b506040820151816002015560608201518160030160006101000a81548173ffffffffffffffffffffffffffffffffffffffff021916908373ffffffffffffffffffffffffffffffffffffffff1602179055506080820151816004015560a08201518160050190805190602001906121db929190612521565b5060c0820151816006015550506020820151816007016000820151816000015560208201518160010190805190602001906122179291906124a1565b5060408201518160020190805190602001906122349291906124a1565b50606082015181600301556080820151816004015560a08201518160050160006101000a81548173ffffffffffffffffffffffffffffffffffffffff021916908373ffffffffffffffffffffffffffffffffffffffff16021790555060c0820151816006015560e0820151816007015550509050507f4b478fe60c8315a3a592faa2f0d1dec44f3cdbb27316336c33a3fa4174a8d66d6001548460200151856040015186606001518760800151336040516122f496959493929190612d3e565b60405180910390a150505050565b60015481565b60025481565b60006004600084815260200190815260200160002060050190508082600001519080600181540180825580915050906001820390600052602060002001600090919290919091505550806004600085815260200190815260200160002060050190805461237c9291906126ea565b50600660006004600086815260200190815260200160002060030160009054906101000a900473ffffffffffffffffffffffffffffffffffffffff1673ffffffffffffffffffffffffffffffffffffffff1673ffffffffffffffffffffffffffffffffffffffff168152602001908152602001600020600501826000015190806001815401808255809150509060018203906000526020600020016000909192909190915055506004600084815260200190815260200160002060040160008154809291906001019190505550505050565b6040518060e00160405280600081526020016060815260200160008152602001600073ffffffffffffffffffffffffffffffffffffffff1681526020016000815260200160608152602001600081525090565b828054600181600116156101000203166002900490600052602060002090601f016020900481019282601f106124e257805160ff1916838001178555612510565b82800160010185558215612510579182015b8281111561250f5782518255916020019190600101906124f4565b5b50905061251d919061273c565b5090565b82805482825590600052602060002090810192821561255d579160200282015b8281111561255c578251825591602001919060010190612541565b5b50905061256a919061273c565b5090565b828054600181600116156101000203166002900490600052602060002090601f016020900481019282601f106125a757805485556125e4565b828001600101855582156125e457600052602060002091601f016020900482015b828111156125e35782548255916001019190600101906125c8565b5b5090506125f1919061273c565b5090565b8280548282559060005260206000209081019282156126365760005260206000209182015b8281111561263557825482559160010191906001019061261a565b5b509050612643919061273c565b5090565b50805460018160011615610100020316600290046000825580601f1061266d575061268c565b601f01602090049060005260206000209081019061268b919061273c565b5b50565b6040518061010001604052806000815260200160608152602001606081526020016000815260200160008152602001600073ffffffffffffffffffffffffffffffffffffffff16815260200160008152602001600081525090565b82805482825590600052602060002090810192821561272b5760005260206000209182015b8281111561272a57825482559160010191906001019061270f565b5b509050612738919061273c565b5090565b61275e91905b8082111561275a576000816000905550600101612742565b5090565b90565b60008135905061277081613066565b92915050565b600082601f83011261278757600080fd5b813561279a61279582612ece565b612ea1565b915080825260208301602083018583830111156127b657600080fd5b6127c1838284613013565b50505092915050565b6000813590506127d98161307d565b92915050565b6000602082840312156127f157600080fd5b60006127ff84828501612761565b91505092915050565b60006020828403121561281a57600080fd5b600082013567ffffffffffffffff81111561283457600080fd5b61284084828501612776565b91505092915050565b60008060006060848603121561285e57600080fd5b600084013567ffffffffffffffff81111561287857600080fd5b61288486828701612776565b935050602084013567ffffffffffffffff8111156128a157600080fd5b6128ad86828701612776565b92505060406128be868287016127ca565b9150509250925092565b6000602082840312156128da57600080fd5b60006128e8848285016127ca565b91505092915050565b60006128fd8383612bd5565b60208301905092915050565b61291281612fb9565b82525050565b61292181612f7d565b82525050565b61293081612f7d565b82525050565b61293f81612f6b565b82525050565b61294e81612f6b565b82525050565b600061295f82612f0a565b6129698185612f38565b935061297483612efa565b8060005b838110156129a557815161298c88826128f1565b975061299783612f2b565b925050600181019050612978565b5085935050505092915050565b6129bb81612fcb565b82525050565b6129ca81612fdd565b82525050565b60006129db82612f20565b6129e58185612f5a565b93506129f5818560208601613022565b6129fe81613055565b840191505092915050565b6000612a1482612f15565b612a1e8185612f49565b9350612a2e818560208601613022565b612a3781613055565b840191505092915050565b6000612a4d82612f15565b612a578185612f5a565b9350612a67818560208601613022565b612a7081613055565b840191505092915050565b600061010083016000830151612a946000860182612bd5565b5060208301518482036020860152612aac8282612a09565b91505060408301518482036040860152612ac68282612a09565b9150506060830151612adb6060860182612bd5565b506080830151612aee6080860182612bd5565b5060a0830151612b0160a0860182612918565b5060c0830151612b1460c0860182612bd5565b5060e0830151612b2760e0860182612bd5565b508091505092915050565b600060e083016000830151612b4a6000860182612bd5565b5060208301518482036020860152612b628282612a09565b9150506040830151612b776040860182612bd5565b506060830151612b8a6060860182612936565b506080830151612b9d6080860182612bd5565b5060a083015184820360a0860152612bb58282612954565b91505060c0830151612bca60c0860182612bd5565b508091505092915050565b612bde81612faf565b82525050565b612bed81612faf565b82525050565b6000606082019050612c086000830186612945565b8181036020830152612c1a8185612a42565b9050612c296040830184612be4565b949350505050565b60006040820190508181036000830152612c4b8185612b32565b90508181036020830152612c5f8184612a7b565b90509392505050565b6000602082019050612c7d6000830184612be4565b92915050565b6000606082019050612c986000830186612be4565b8181036020830152612caa81856129d0565b9050612cb96040830184612909565b949350505050565b600060e082019050612cd6600083018a612be4565b8181036020830152612ce881896129d0565b90508181036040830152612cfc81886129d0565b9050612d0b6060830187612be4565b612d1860808301866129b2565b612d2560a0830185612927565b612d3260c08301846129c1565b98975050505050505050565b600060c082019050612d536000830189612be4565b8181036020830152612d658188612a42565b90508181036040830152612d798187612a42565b9050612d886060830186612be4565b612d956080830185612be4565b612da260a0830184612927565b979650505050505050565b600061010082019050612dc3600083018b612be4565b8181036020830152612dd5818a612a42565b90508181036040830152612de98189612a42565b9050612df86060830188612be4565b612e056080830187612be4565b612e1260a0830186612927565b612e1f60c0830185612be4565b612e2c60e0830184612be4565b9998505050505050505050565b600060c082019050612e4e6000830189612be4565b8181036020830152612e608188612a42565b9050612e6f6040830187612be4565b612e7c6060830186612945565b612e896080830185612be4565b612e9660a0830184612be4565b979650505050505050565b6000604051905081810181811067ffffffffffffffff82111715612ec457600080fd5b8060405250919050565b600067ffffffffffffffff821115612ee557600080fd5b601f19601f8301169050602081019050919050565b6000819050602082019050919050565b600081519050919050565b600081519050919050565b600081519050919050565b6000602082019050919050565b600082825260208201905092915050565b600082825260208201905092915050565b600082825260208201905092915050565b6000612f7682612f8f565b9050919050565b6000612f8882612f8f565b9050919050565b600073ffffffffffffffffffffffffffffffffffffffff82169050919050565b6000819050919050565b6000612fc482612fef565b9050919050565b6000612fd682612faf565b9050919050565b6000612fe882612faf565b9050919050565b6000612ffa82613001565b9050919050565b600061300c82612f8f565b9050919050565b82818337600083830152505050565b60005b83811015613040578082015181840152602081019050613025565b8381111561304f576000848401525b50505050565b6000601f19601f8301169050919050565b61306f81612f6b565b811461307a57600080fd5b50565b61308681612faf565b811461309157600080fd5b5056fea365627a7a7231582078cec04eb0a4042f8cc36b8a353ed5a4c80bf38a8665d43cbb4d1680f6bcce436c6578706572696d656e74616cf564736f6c63430005100040",
  "source": "pragma solidity ^0.5.0;\r\npragma experimental ABIEncoderV2;\r\n\r\ncontract GiveNTake {\r\n  //string public name;\r\n  uint public usersCount = 0;\r\n  uint public cardsCount = 0;\r\n  uint public transactionsCount = 0;\r\n  \r\n\r\n  struct User {\r\n    uint id;\r\n    string name;\r\n    uint rate;\r\n    address owner;\r\n    uint cardAmount;\r\n    uint[] mycards;\r\n    uint ratingCount;\r\n  }\r\n\r\n  struct Card {\r\n        uint id;\r\n        string headline;\r\n        string content;\r\n        uint price;\r\n        uint soldCount;\r\n        address payable owner;\r\n        uint ownerRate;  \r\n        uint isActive;\r\n    }\r\n\r\n  struct Transaction {\r\n    User buyer;\r\n    Card card;\r\n  }\r\n\r\n  event UserAdded(\r\n    uint id,\r\n    string name,\r\n    address owner\r\n  );\r\n\r\n  event CardCreated(\r\n        uint id,\r\n        string headline,\r\n        string content,\r\n        uint price,\r\n        uint soldCount,\r\n        address payable owner,\r\n        uint isActive\r\n    );\r\n\r\n  event CardBought(\r\n        uint id,\r\n        string headline,\r\n        string content,\r\n        uint price,\r\n        uint soldCount,\r\n        address payable owner\r\n    );\r\n\r\n  event UserRated(\r\n        address userAddress,\r\n        string name,\r\n        uint rate\r\n    );\r\n\r\n    mapping (uint => Transaction) public transactions;\r\n    mapping(uint => User) public users;\r\n    mapping(uint => Card) public cards;\r\n    mapping (address => User) public usersByAddress;\r\n\r\n  constructor() public {\r\n    //name = \"Decentragram\";\r\n    // postOffer(\"Example offer\", \"Example content\", 10);\r\n  }\r\n\r\n  function addUser(string memory _name) public {\r\n    // Increment image id\r\n    usersCount ++;\r\n    uint[] memory my_cards;\r\n    users[usersCount] = User(usersCount, _name, 0, msg.sender,0, my_cards, 0);\r\n    usersByAddress[msg.sender] = users[usersCount];\r\n\r\n    emit UserAdded(usersCount, _name, msg.sender);\r\n  }\r\n\r\n  function postOffer(string memory _headline, string memory _content, uint _price) public {\r\n        cardsCount ++;\r\n        User memory _owner = usersByAddress[msg.sender];\r\n        uint rate = _owner.rate;\r\n        cards[cardsCount] = Card(cardsCount, _headline, _content, _price, 0, msg.sender,rate, 1);\r\n        User memory curr_user = usersByAddress[msg.sender];\r\n      \r\n        //add new card to user list\r\n        add_cardToUser(curr_user.id, cards[cardsCount]);\r\n\r\n        emit CardCreated(cardsCount, _headline, _content, _price, 0, msg.sender, 1);\r\n    }\r\n  function add_cardToUser(uint currUserId, Card memory currCard) private{\r\n        //add card to user card list\r\n        uint [] storage mycards = users[currUserId].mycards;\r\n        mycards.push(currCard.id);\r\n        users[currUserId].mycards = mycards;\r\n        usersByAddress[users[currUserId].owner].mycards.push(currCard.id);\r\n\r\n        \r\n        //currUser.my_cards[curr_amount] = currCard;\r\n        users[currUserId].cardAmount++;\r\n    }\r\n  function buyOffer(uint _cardId) public payable {\r\n        require(_cardId > 0 && _cardId <= cardsCount);\r\n\r\n        Card memory _card = cards[_cardId];\r\n        address payable _owner = _card.owner;\r\n        \r\n        _owner.transfer(msg.value);\r\n        _card.soldCount ++;\r\n        cards[_cardId] = _card;     // update the card\r\n\r\n        // add transaction \r\n        transactionsCount++;\r\n        User memory buyer = usersByAddress[msg.sender];\r\n        transactions[transactionsCount] = Transaction(buyer, _card);\r\n\r\n        emit CardBought(cardsCount, _card.headline, _card.content, _card.price, _card.soldCount, msg.sender);\r\n\r\n    }\r\n  function rateSeller(address _sellerAddress) public {\r\n        // require(_sellerId > 0 && _sellerId <= usersCount);\r\n      \r\n        // perhaps add that I can only rate a user once\r\n        usersByAddress[_sellerAddress].rate++;\r\n        User memory _user =  usersByAddress[_sellerAddress];\r\n        users[_user.id].rate++;   // update the user in the second array as well\r\n\r\n        // for each 5 times rating others, user earns a rate for himself\r\n        uint flag = 0;\r\n        User memory rater = usersByAddress[msg.sender];\r\n        if (rater.ratingCount % 3 == 0) {\r\n          rater.rate++;\r\n          flag = 1;\r\n        }\r\n        rater.ratingCount++;\r\n        usersByAddress[msg.sender] = rater;\r\n        users[rater.id] = rater;\r\n        \r\n        // update all their cards\r\n        uint i = 1;\r\n        for (i=1; i<=cardsCount; i++) {\r\n          if (cards[i].owner == _sellerAddress) {\r\n              cards[i].ownerRate++;\r\n          }\r\n          if (flag == 1 && cards[i].owner == msg.sender) {\r\n              cards[i].ownerRate++;\r\n          }\r\n        }\r\n\r\n        emit UserRated(_sellerAddress, _user.name, _user.rate);\r\n    }\r\n  function deleteCard(uint id) public {\r\n      Card storage toDelete = cards[id];\r\n      toDelete.isActive = 0;\r\n\r\n       /* Card storage toDelete = cards[id];\r\n        require(toDelete.owner == msg.sender);\r\n        User memory card_owner = usersByAddress[toDelete.owner];\r\n        for(uint i = 1; i<card_owner.mycards.length; i++){\r\n          if(card_owner.mycards[i]==id){\r\n            for(uint j = i ; j<card_owner.mycards.length; j++){\r\n              card_owner.mycards[j] = card_owner.mycards[j+1];\r\n            }\r\n          }\r\n        }\r\n        //need to find card id in mycards array, delete it and move everything one to the left\r\n       /* for (uint i = card_owner.id; i<card_owner.mycards.length-1; i++){\r\n            card_owner.mycards[i] = card_owner.mycards[i+1];\r\n        }*/\r\n        //move all cards in cards array \r\n        /*for(uint i = cards[toDelete.id]; i <cards.length()-1; i++){\r\n            cards[i] = cards[i+1];\r\n        }*/\r\n        //delete card_owner.mycards[card_owner.mycards.length-1];\r\n      delete cards[id];\r\n      cardsCount--;\r\n  }    \r\n\r\n}",
  "sourcePath": "C:\\Users\\sahar\\unevirsity\\blockchain\\src\\contracts\\GiveNTake.sol",
  "compiler": {
    "name": "solc",
    "version": "0.5.16+commit.9c3226ce.Emscripten.clang"
  },
  "schemaVersion": "3.4.3",
  "updatedAt": "2021-12-18T20:15:14.124Z",
  "networkType": "ethereum",
  "devdoc": {
    "methods": {}
  },
  "userdoc": {
    "methods": {}
  }
}