{
  "contractName": "GiveNTake",
  "abi": [
    {
      "inputs": [],
      "payable": false,
      "stateMutability": "nonpayable",
      "type": "constructor"
    },
    {
      "anonymous": false,
      "inputs": [
        {
          "indexed": false,
          "internalType": "uint256",
          "name": "id",
          "type": "uint256"
        },
        {
          "indexed": false,
          "internalType": "string",
          "name": "headline",
          "type": "string"
        },
        {
          "indexed": false,
          "internalType": "string",
          "name": "content",
          "type": "string"
        },
        {
          "indexed": false,
          "internalType": "uint256",
          "name": "price",
          "type": "uint256"
        },
        {
          "indexed": false,
          "internalType": "uint256",
          "name": "soldCount",
          "type": "uint256"
        },
        {
          "indexed": false,
          "internalType": "address payable",
          "name": "owner",
          "type": "address"
        }
      ],
      "name": "CardBought",
      "type": "event"
    },
    {
      "anonymous": false,
      "inputs": [
        {
          "indexed": false,
          "internalType": "uint256",
          "name": "id",
          "type": "uint256"
        },
        {
          "indexed": false,
          "internalType": "string",
          "name": "headline",
          "type": "string"
        },
        {
          "indexed": false,
          "internalType": "string",
          "name": "content",
          "type": "string"
        },
        {
          "indexed": false,
          "internalType": "uint256",
          "name": "price",
          "type": "uint256"
        },
        {
          "indexed": false,
          "internalType": "uint256",
          "name": "soldCount",
          "type": "uint256"
        },
        {
          "indexed": false,
          "internalType": "address payable",
          "name": "owner",
          "type": "address"
        },
        {
          "indexed": false,
          "internalType": "uint256",
          "name": "isActive",
          "type": "uint256"
        }
      ],
      "name": "CardCreated",
      "type": "event"
    },
    {
      "anonymous": false,
      "inputs": [
        {
          "indexed": false,
          "internalType": "uint256",
          "name": "id",
          "type": "uint256"
        },
        {
          "indexed": false,
          "internalType": "string",
          "name": "name",
          "type": "string"
        },
        {
          "indexed": false,
          "internalType": "address",
          "name": "owner",
          "type": "address"
        }
      ],
      "name": "UserAdded",
      "type": "event"
    },
    {
      "anonymous": false,
      "inputs": [
        {
          "indexed": false,
          "internalType": "address",
          "name": "userAddress",
          "type": "address"
        },
        {
          "indexed": false,
          "internalType": "string",
          "name": "name",
          "type": "string"
        },
        {
          "indexed": false,
          "internalType": "uint256",
          "name": "rate",
          "type": "uint256"
        }
      ],
      "name": "UserRated",
      "type": "event"
    },
    {
      "constant": true,
      "inputs": [
        {
          "internalType": "uint256",
          "name": "",
          "type": "uint256"
        }
      ],
      "name": "cards",
      "outputs": [
        {
          "internalType": "uint256",
          "name": "id",
          "type": "uint256"
        },
        {
          "internalType": "string",
          "name": "headline",
          "type": "string"
        },
        {
          "internalType": "string",
          "name": "content",
          "type": "string"
        },
        {
          "internalType": "uint256",
          "name": "price",
          "type": "uint256"
        },
        {
          "internalType": "uint256",
          "name": "soldCount",
          "type": "uint256"
        },
        {
          "internalType": "address payable",
          "name": "owner",
          "type": "address"
        },
        {
          "internalType": "uint256",
          "name": "ownerRate",
          "type": "uint256"
        },
        {
          "internalType": "uint256",
          "name": "isActive",
          "type": "uint256"
        }
      ],
      "payable": false,
      "stateMutability": "view",
      "type": "function"
    },
    {
      "constant": true,
      "inputs": [],
      "name": "cardsCount",
      "outputs": [
        {
          "internalType": "uint256",
          "name": "",
          "type": "uint256"
        }
      ],
      "payable": false,
      "stateMutability": "view",
      "type": "function"
    },
    {
      "constant": true,
      "inputs": [
        {
          "internalType": "uint256",
          "name": "",
          "type": "uint256"
        }
      ],
      "name": "transactions",
      "outputs": [
        {
          "components": [
            {
              "internalType": "uint256",
              "name": "id",
              "type": "uint256"
            },
            {
              "internalType": "string",
              "name": "name",
              "type": "string"
            },
            {
              "internalType": "uint256",
              "name": "rate",
              "type": "uint256"
            },
            {
              "internalType": "address",
              "name": "owner",
              "type": "address"
            },
            {
              "internalType": "uint256",
              "name": "cardAmount",
              "type": "uint256"
            },
            {
              "internalType": "uint256",
              "name": "ratingCount",
              "type": "uint256"
            }
          ],
          "internalType": "struct GiveNTake.User",
          "name": "buyer",
          "type": "tuple"
        },
        {
          "components": [
            {
              "internalType": "uint256",
              "name": "id",
              "type": "uint256"
            },
            {
              "internalType": "string",
              "name": "headline",
              "type": "string"
            },
            {
              "internalType": "string",
              "name": "content",
              "type": "string"
            },
            {
              "internalType": "uint256",
              "name": "price",
              "type": "uint256"
            },
            {
              "internalType": "uint256",
              "name": "soldCount",
              "type": "uint256"
            },
            {
              "internalType": "address payable",
              "name": "owner",
              "type": "address"
            },
            {
              "internalType": "uint256",
              "name": "ownerRate",
              "type": "uint256"
            },
            {
              "internalType": "uint256",
              "name": "isActive",
              "type": "uint256"
            }
          ],
          "internalType": "struct GiveNTake.Card",
          "name": "card",
          "type": "tuple"
        }
      ],
      "payable": false,
      "stateMutability": "view",
      "type": "function"
    },
    {
      "constant": true,
      "inputs": [],
      "name": "transactionsCount",
      "outputs": [
        {
          "internalType": "uint256",
          "name": "",
          "type": "uint256"
        }
      ],
      "payable": false,
      "stateMutability": "view",
      "type": "function"
    },
    {
      "constant": true,
      "inputs": [
        {
          "internalType": "uint256",
          "name": "",
          "type": "uint256"
        }
      ],
      "name": "users",
      "outputs": [
        {
          "internalType": "uint256",
          "name": "id",
          "type": "uint256"
        },
        {
          "internalType": "string",
          "name": "name",
          "type": "string"
        },
        {
          "internalType": "uint256",
          "name": "rate",
          "type": "uint256"
        },
        {
          "internalType": "address",
          "name": "owner",
          "type": "address"
        },
        {
          "internalType": "uint256",
          "name": "cardAmount",
          "type": "uint256"
        },
        {
          "internalType": "uint256",
          "name": "ratingCount",
          "type": "uint256"
        }
      ],
      "payable": false,
      "stateMutability": "view",
      "type": "function"
    },
    {
      "constant": true,
      "inputs": [
        {
          "internalType": "address",
          "name": "",
          "type": "address"
        }
      ],
      "name": "usersByAddress",
      "outputs": [
        {
          "internalType": "uint256",
          "name": "id",
          "type": "uint256"
        },
        {
          "internalType": "string",
          "name": "name",
          "type": "string"
        },
        {
          "internalType": "uint256",
          "name": "rate",
          "type": "uint256"
        },
        {
          "internalType": "address",
          "name": "owner",
          "type": "address"
        },
        {
          "internalType": "uint256",
          "name": "cardAmount",
          "type": "uint256"
        },
        {
          "internalType": "uint256",
          "name": "ratingCount",
          "type": "uint256"
        }
      ],
      "payable": false,
      "stateMutability": "view",
      "type": "function"
    },
    {
      "constant": true,
      "inputs": [],
      "name": "usersCount",
      "outputs": [
        {
          "internalType": "uint256",
          "name": "",
          "type": "uint256"
        }
      ],
      "payable": false,
      "stateMutability": "view",
      "type": "function"
    },
    {
      "constant": false,
      "inputs": [
        {
          "internalType": "string",
          "name": "_name",
          "type": "string"
        }
      ],
      "name": "addUser",
      "outputs": [],
      "payable": false,
      "stateMutability": "nonpayable",
      "type": "function"
    },
    {
      "constant": false,
      "inputs": [
        {
          "internalType": "string",
          "name": "_headline",
          "type": "string"
        },
        {
          "internalType": "string",
          "name": "_content",
          "type": "string"
        },
        {
          "internalType": "uint256",
          "name": "_price",
          "type": "uint256"
        }
      ],
      "name": "postOffer",
      "outputs": [],
      "payable": false,
      "stateMutability": "nonpayable",
      "type": "function"
    },
    {
      "constant": false,
      "inputs": [
        {
          "internalType": "uint256",
          "name": "_cardId",
          "type": "uint256"
        }
      ],
      "name": "buyOffer",
      "outputs": [],
      "payable": true,
      "stateMutability": "payable",
      "type": "function"
    },
    {
      "constant": false,
      "inputs": [
        {
          "internalType": "address",
          "name": "_sellerAddress",
          "type": "address"
        }
      ],
      "name": "rateSeller",
      "outputs": [],
      "payable": false,
      "stateMutability": "nonpayable",
      "type": "function"
    },
    {
      "constant": false,
      "inputs": [
        {
          "internalType": "uint256",
          "name": "id",
          "type": "uint256"
        }
      ],
      "name": "deleteCard",
      "outputs": [],
      "payable": false,
      "stateMutability": "nonpayable",
      "type": "function"
    }
  ],
  "bytecode": "0x6080604052600080556000600155600060025534801561001e57600080fd5b506129388061002e6000396000f3fe6080604052600436106100a75760003560e01c80637f1d08cc116100645780637f1d08cc146101d65780638dc10768146101ff5780639ace38c2146102435780639ecce70014610281578063bd6c67561461029d578063fd99a746146102c8576100a7565b806309f5d7ac146100ac57806318b8275a146100d5578063365b98b2146100fe5780635e1acf65146101405780636ba13a82146101695780636bf693c414610194575b600080fd5b3480156100b857600080fd5b506100d360048036036100ce9190810190612109565b6102f3565b005b3480156100e157600080fd5b506100fc60048036036100f79190810190612132565b6109a7565b005b34801561010a57600080fd5b50610125600480360361012091908101906121f2565b610bf0565b604051610137969594939291906126d3565b60405180910390f35b34801561014c57600080fd5b50610167600480360361016291908101906121f2565b610ce4565b005b34801561017557600080fd5b5061017e610da1565b60405161018b9190612502565b60405180910390f35b3480156101a057600080fd5b506101bb60048036036101b69190810190612109565b610da7565b6040516101cd969594939291906126d3565b60405180910390f35b3480156101e257600080fd5b506101fd60048036036101f89190810190612173565b610e9b565b005b34801561020b57600080fd5b50610226600480360361022191908101906121f2565b61130c565b60405161023a989796959493929190612647565b60405180910390f35b34801561024f57600080fd5b5061026a600480360361026591908101906121f2565b6114a4565b6040516102789291906124cb565b60405180910390f35b61029b600480360361029691908101906121f2565b6117c9565b005b3480156102a957600080fd5b506102b2611e64565b6040516102bf9190612502565b60405180910390f35b3480156102d457600080fd5b506102dd611e6a565b6040516102ea9190612502565b60405180910390f35b600660008273ffffffffffffffffffffffffffffffffffffffff1673ffffffffffffffffffffffffffffffffffffffff1681526020019081526020016000206002016000815480929190600101919050555061034d611e70565b600660008373ffffffffffffffffffffffffffffffffffffffff1673ffffffffffffffffffffffffffffffffffffffff1681526020019081526020016000206040518060c001604052908160008201548152602001600182018054600181600116156101000203166002900480601f01602080910402602001604051908101604052809291908181526020018280546001816001161561010002031660029004801561043a5780601f1061040f5761010080835404028352916020019161043a565b820191906000526020600020905b81548152906001019060200180831161041d57829003601f168201915b50505050508152602001600282015481526020016003820160009054906101000a900473ffffffffffffffffffffffffffffffffffffffff1673ffffffffffffffffffffffffffffffffffffffff1673ffffffffffffffffffffffffffffffffffffffff16815260200160048201548152602001600582015481525050905060046000826000015181526020019081526020016000206002016000815480929190600101919050555060008090506104f0611e70565b600660003373ffffffffffffffffffffffffffffffffffffffff1673ffffffffffffffffffffffffffffffffffffffff1681526020019081526020016000206040518060c001604052908160008201548152602001600182018054600181600116156101000203166002900480601f0160208091040260200160405190810160405280929190818152602001828054600181600116156101000203166002900480156105dd5780601f106105b2576101008083540402835291602001916105dd565b820191906000526020600020905b8154815290600101906020018083116105c057829003601f168201915b50505050508152602001600282015481526020016003820160009054906101000a900473ffffffffffffffffffffffffffffffffffffffff1673ffffffffffffffffffffffffffffffffffffffff1673ffffffffffffffffffffffffffffffffffffffff168152602001600482015481526020016005820154815250509050600060038260a001518161066c57fe5b0614156106885780604001805180919060010181525050600191505b8060a00180518091906001018152505080600660003373ffffffffffffffffffffffffffffffffffffffff1673ffffffffffffffffffffffffffffffffffffffff1681526020019081526020016000206000820151816000015560208201518160010190805190602001906106fe929190611ebc565b506040820151816002015560608201518160030160006101000a81548173ffffffffffffffffffffffffffffffffffffffff021916908373ffffffffffffffffffffffffffffffffffffffff1602179055506080820151816004015560a082015181600501559050508060046000836000015181526020019081526020016000206000820151816000015560208201518160010190805190602001906107a5929190611ebc565b506040820151816002015560608201518160030160006101000a81548173ffffffffffffffffffffffffffffffffffffffff021916908373ffffffffffffffffffffffffffffffffffffffff1602179055506080820151816004015560a08201518160050155905050600060019050600190505b600154811161095d578473ffffffffffffffffffffffffffffffffffffffff166005600083815260200190815260200160002060050160009054906101000a900473ffffffffffffffffffffffffffffffffffffffff1673ffffffffffffffffffffffffffffffffffffffff1614156108b35760056000828152602001908152602001600020600601600081548092919060010191905055505b60018314801561092457503373ffffffffffffffffffffffffffffffffffffffff166005600083815260200190815260200160002060050160009054906101000a900473ffffffffffffffffffffffffffffffffffffffff1673ffffffffffffffffffffffffffffffffffffffff16145b156109505760056000828152602001908152602001600020600601600081548092919060010191905055505b8080600101915050610819565b7f490c23cb4472f593b5661d96d329f01d41ad2871e497b5be0418996229971bf585856020015186604001516040516109989392919061248d565b60405180910390a15050505050565b60008081548092919060010191905055506040518060c001604052806000548152602001828152602001600081526020013373ffffffffffffffffffffffffffffffffffffffff1681526020016000815260200160018152506004600080548152602001908152602001600020600082015181600001556020820151816001019080519060200190610a3a929190611ebc565b506040820151816002015560608201518160030160006101000a81548173ffffffffffffffffffffffffffffffffffffffff021916908373ffffffffffffffffffffffffffffffffffffffff1602179055506080820151816004015560a082015181600501559050506004600080548152602001908152602001600020600660003373ffffffffffffffffffffffffffffffffffffffff1673ffffffffffffffffffffffffffffffffffffffff1681526020019081526020016000206000820154816000015560018201816001019080546001816001161561010002031660029004610b27929190611f3c565b50600282015481600201556003820160009054906101000a900473ffffffffffffffffffffffffffffffffffffffff168160030160006101000a81548173ffffffffffffffffffffffffffffffffffffffff021916908373ffffffffffffffffffffffffffffffffffffffff16021790555060048201548160040155600582015481600501559050507f514af2a82370fd69109ef67206736f3880c4f9c15d2f2acd798b782ae37fdc5a6000548233604051610be59392919061251d565b60405180910390a150565b6004602052806000526040600020600091509050806000015490806001018054600181600116156101000203166002900480601f016020809104026020016040519081016040528092919081815260200182805460018160011615610100020316600290048015610ca25780601f10610c7757610100808354040283529160200191610ca2565b820191906000526020600020905b815481529060010190602001808311610c8557829003601f168201915b5050505050908060020154908060030160009054906101000a900473ffffffffffffffffffffffffffffffffffffffff16908060040154908060050154905086565b60006005600083815260200190815260200160002090506000816007018190555060056000838152602001908152602001600020600080820160009055600182016000610d319190611fc3565b600282016000610d419190611fc3565b600382016000905560048201600090556005820160006101000a81549073ffffffffffffffffffffffffffffffffffffffff0219169055600682016000905560078201600090555050600160008154809291906001900391905055505050565b60005481565b6006602052806000526040600020600091509050806000015490806001018054600181600116156101000203166002900480601f016020809104026020016040519081016040528092919081815260200182805460018160011615610100020316600290048015610e595780601f10610e2e57610100808354040283529160200191610e59565b820191906000526020600020905b815481529060010190602001808311610e3c57829003601f168201915b5050505050908060020154908060030160009054906101000a900473ffffffffffffffffffffffffffffffffffffffff16908060040154908060050154905086565b600160008154809291906001019190505550610eb5611e70565b600660003373ffffffffffffffffffffffffffffffffffffffff1673ffffffffffffffffffffffffffffffffffffffff1681526020019081526020016000206040518060c001604052908160008201548152602001600182018054600181600116156101000203166002900480601f016020809104026020016040519081016040528092919081815260200182805460018160011615610100020316600290048015610fa25780601f10610f7757610100808354040283529160200191610fa2565b820191906000526020600020905b815481529060010190602001808311610f8557829003601f168201915b50505050508152602001600282015481526020016003820160009054906101000a900473ffffffffffffffffffffffffffffffffffffffff1673ffffffffffffffffffffffffffffffffffffffff1673ffffffffffffffffffffffffffffffffffffffff1681526020016004820154815260200160058201548152505090506000816040015190506040518061010001604052806001548152602001868152602001858152602001848152602001600081526020013373ffffffffffffffffffffffffffffffffffffffff16815260200182815260200160018152506005600060015481526020019081526020016000206000820151816000015560208201518160010190805190602001906110b9929190611ebc565b5060408201518160020190805190602001906110d6929190611ebc565b50606082015181600301556080820151816004015560a08201518160050160006101000a81548173ffffffffffffffffffffffffffffffffffffffff021916908373ffffffffffffffffffffffffffffffffffffffff16021790555060c0820151816006015560e08201518160070155905050611151611e70565b600660003373ffffffffffffffffffffffffffffffffffffffff1673ffffffffffffffffffffffffffffffffffffffff1681526020019081526020016000206040518060c001604052908160008201548152602001600182018054600181600116156101000203166002900480601f01602080910402602001604051908101604052809291908181526020018280546001816001161561010002031660029004801561123e5780601f106112135761010080835404028352916020019161123e565b820191906000526020600020905b81548152906001019060200180831161122157829003601f168201915b50505050508152602001600282015481526020016003820160009054906101000a900473ffffffffffffffffffffffffffffffffffffffff1673ffffffffffffffffffffffffffffffffffffffff1673ffffffffffffffffffffffffffffffffffffffff1681526020016004820154815260200160058201548152505090507fb4c33a6a401f72300c2d78746515217417479d3c3c941cb6981b287fc2b3f73b60015487878760003360016040516112fc979695949392919061255b565b60405180910390a1505050505050565b6005602052806000526040600020600091509050806000015490806001018054600181600116156101000203166002900480601f0160208091040260200160405190810160405280929190818152602001828054600181600116156101000203166002900480156113be5780601f10611393576101008083540402835291602001916113be565b820191906000526020600020905b8154815290600101906020018083116113a157829003601f168201915b505050505090806002018054600181600116156101000203166002900480601f01602080910402602001604051908101604052809291908181526020018280546001816001161561010002031660029004801561145c5780601f106114315761010080835404028352916020019161145c565b820191906000526020600020905b81548152906001019060200180831161143f57829003601f168201915b5050505050908060030154908060040154908060050160009054906101000a900473ffffffffffffffffffffffffffffffffffffffff16908060060154908060070154905088565b6003602052806000526040600020600091509050806000016040518060c001604052908160008201548152602001600182018054600181600116156101000203166002900480601f01602080910402602001604051908101604052809291908181526020018280546001816001161561010002031660029004801561156a5780601f1061153f5761010080835404028352916020019161156a565b820191906000526020600020905b81548152906001019060200180831161154d57829003601f168201915b50505050508152602001600282015481526020016003820160009054906101000a900473ffffffffffffffffffffffffffffffffffffffff1673ffffffffffffffffffffffffffffffffffffffff1673ffffffffffffffffffffffffffffffffffffffff1681526020016004820154815260200160058201548152505090806006016040518061010001604052908160008201548152602001600182018054600181600116156101000203166002900480601f01602080910402602001604051908101604052809291908181526020018280546001816001161561010002031660029004801561169b5780601f106116705761010080835404028352916020019161169b565b820191906000526020600020905b81548152906001019060200180831161167e57829003601f168201915b50505050508152602001600282018054600181600116156101000203166002900480601f01602080910402602001604051908101604052809291908181526020018280546001816001161561010002031660029004801561173d5780601f106117125761010080835404028352916020019161173d565b820191906000526020600020905b81548152906001019060200180831161172057829003601f168201915b5050505050815260200160038201548152602001600482015481526020016005820160009054906101000a900473ffffffffffffffffffffffffffffffffffffffff1673ffffffffffffffffffffffffffffffffffffffff1673ffffffffffffffffffffffffffffffffffffffff16815260200160068201548152602001600782015481525050905082565b6000811180156117db57506001548111155b6117e457600080fd5b6117ec61200b565b600560008381526020019081526020016000206040518061010001604052908160008201548152602001600182018054600181600116156101000203166002900480601f0160208091040260200160405190810160405280929190818152602001828054600181600116156101000203166002900480156118ae5780601f10611883576101008083540402835291602001916118ae565b820191906000526020600020905b81548152906001019060200180831161189157829003601f168201915b50505050508152602001600282018054600181600116156101000203166002900480601f0160208091040260200160405190810160405280929190818152602001828054600181600116156101000203166002900480156119505780601f1061192557610100808354040283529160200191611950565b820191906000526020600020905b81548152906001019060200180831161193357829003601f168201915b5050505050815260200160038201548152602001600482015481526020016005820160009054906101000a900473ffffffffffffffffffffffffffffffffffffffff1673ffffffffffffffffffffffffffffffffffffffff1673ffffffffffffffffffffffffffffffffffffffff16815260200160068201548152602001600782015481525050905060008160a0015190508073ffffffffffffffffffffffffffffffffffffffff166108fc349081150290604051600060405180830381858888f19350505050158015611a28573d6000803e3d6000fd5b50816080018051809190600101815250508160056000858152602001908152602001600020600082015181600001556020820151816001019080519060200190611a73929190611ebc565b506040820151816002019080519060200190611a90929190611ebc565b50606082015181600301556080820151816004015560a08201518160050160006101000a81548173ffffffffffffffffffffffffffffffffffffffff021916908373ffffffffffffffffffffffffffffffffffffffff16021790555060c0820151816006015560e08201518160070155905050600260008154809291906001019190505550611b1d611e70565b600660003373ffffffffffffffffffffffffffffffffffffffff1673ffffffffffffffffffffffffffffffffffffffff1681526020019081526020016000206040518060c001604052908160008201548152602001600182018054600181600116156101000203166002900480601f016020809104026020016040519081016040528092919081815260200182805460018160011615610100020316600290048015611c0a5780601f10611bdf57610100808354040283529160200191611c0a565b820191906000526020600020905b815481529060010190602001808311611bed57829003601f168201915b50505050508152602001600282015481526020016003820160009054906101000a900473ffffffffffffffffffffffffffffffffffffffff1673ffffffffffffffffffffffffffffffffffffffff1673ffffffffffffffffffffffffffffffffffffffff168152602001600482015481526020016005820154815250509050604051806040016040528082815260200184815250600360006002548152602001908152602001600020600082015181600001600082015181600001556020820151816001019080519060200190611ce2929190611ebc565b506040820151816002015560608201518160030160006101000a81548173ffffffffffffffffffffffffffffffffffffffff021916908373ffffffffffffffffffffffffffffffffffffffff1602179055506080820151816004015560a082015181600501555050602082015181600601600082015181600001556020820151816001019080519060200190611d79929190611ebc565b506040820151816002019080519060200190611d96929190611ebc565b50606082015181600301556080820151816004015560a08201518160050160006101000a81548173ffffffffffffffffffffffffffffffffffffffff021916908373ffffffffffffffffffffffffffffffffffffffff16021790555060c0820151816006015560e0820151816007015550509050507f4b478fe60c8315a3a592faa2f0d1dec44f3cdbb27316336c33a3fa4174a8d66d600154846020015185604001518660600151876080015133604051611e56969594939291906125d8565b60405180910390a150505050565b60015481565b60025481565b6040518060c00160405280600081526020016060815260200160008152602001600073ffffffffffffffffffffffffffffffffffffffff16815260200160008152602001600081525090565b828054600181600116156101000203166002900490600052602060002090601f016020900481019282601f10611efd57805160ff1916838001178555611f2b565b82800160010185558215611f2b579182015b82811115611f2a578251825591602001919060010190611f0f565b5b509050611f389190612066565b5090565b828054600181600116156101000203166002900490600052602060002090601f016020900481019282601f10611f755780548555611fb2565b82800160010185558215611fb257600052602060002091601f016020900482015b82811115611fb1578254825591600101919060010190611f96565b5b509050611fbf9190612066565b5090565b50805460018160011615610100020316600290046000825580601f10611fe95750612008565b601f0160209004906000526020600020908101906120079190612066565b5b50565b6040518061010001604052806000815260200160608152602001606081526020016000815260200160008152602001600073ffffffffffffffffffffffffffffffffffffffff16815260200160008152602001600081525090565b61208891905b8082111561208457600081600090555060010161206c565b5090565b90565b60008135905061209a816128c7565b92915050565b600082601f8301126120b157600080fd5b81356120c46120bf82612768565b61273b565b915080825260208301602083018583830111156120e057600080fd5b6120eb838284612874565b50505092915050565b600081359050612103816128de565b92915050565b60006020828403121561211b57600080fd5b60006121298482850161208b565b91505092915050565b60006020828403121561214457600080fd5b600082013567ffffffffffffffff81111561215e57600080fd5b61216a848285016120a0565b91505092915050565b60008060006060848603121561218857600080fd5b600084013567ffffffffffffffff8111156121a257600080fd5b6121ae868287016120a0565b935050602084013567ffffffffffffffff8111156121cb57600080fd5b6121d7868287016120a0565b92505060406121e8868287016120f4565b9150509250925092565b60006020828403121561220457600080fd5b6000612212848285016120f4565b91505092915050565b6122248161281a565b82525050565b612233816127de565b82525050565b612242816127de565b82525050565b612251816127cc565b82525050565b612260816127cc565b82525050565b61226f8161282c565b82525050565b61227e8161283e565b82525050565b600061228f8261279f565b61229981856127bb565b93506122a9818560208601612883565b6122b2816128b6565b840191505092915050565b60006122c882612794565b6122d281856127aa565b93506122e2818560208601612883565b6122eb816128b6565b840191505092915050565b600061230182612794565b61230b81856127bb565b935061231b818560208601612883565b612324816128b6565b840191505092915050565b600061010083016000830151612348600086018261246f565b506020830151848203602086015261236082826122bd565b9150506040830151848203604086015261237a82826122bd565b915050606083015161238f606086018261246f565b5060808301516123a2608086018261246f565b5060a08301516123b560a086018261222a565b5060c08301516123c860c086018261246f565b5060e08301516123db60e086018261246f565b508091505092915050565b600060c0830160008301516123fe600086018261246f565b506020830151848203602086015261241682826122bd565b915050604083015161242b604086018261246f565b50606083015161243e6060860182612248565b506080830151612451608086018261246f565b5060a083015161246460a086018261246f565b508091505092915050565b61247881612810565b82525050565b61248781612810565b82525050565b60006060820190506124a26000830186612257565b81810360208301526124b481856122f6565b90506124c3604083018461247e565b949350505050565b600060408201905081810360008301526124e581856123e6565b905081810360208301526124f9818461232f565b90509392505050565b6000602082019050612517600083018461247e565b92915050565b6000606082019050612532600083018661247e565b81810360208301526125448185612284565b9050612553604083018461221b565b949350505050565b600060e082019050612570600083018a61247e565b81810360208301526125828189612284565b905081810360408301526125968188612284565b90506125a5606083018761247e565b6125b26080830186612266565b6125bf60a0830185612239565b6125cc60c0830184612275565b98975050505050505050565b600060c0820190506125ed600083018961247e565b81810360208301526125ff81886122f6565b9050818103604083015261261381876122f6565b9050612622606083018661247e565b61262f608083018561247e565b61263c60a0830184612239565b979650505050505050565b60006101008201905061265d600083018b61247e565b818103602083015261266f818a6122f6565b9050818103604083015261268381896122f6565b9050612692606083018861247e565b61269f608083018761247e565b6126ac60a0830186612239565b6126b960c083018561247e565b6126c660e083018461247e565b9998505050505050505050565b600060c0820190506126e8600083018961247e565b81810360208301526126fa81886122f6565b9050612709604083018761247e565b6127166060830186612257565b612723608083018561247e565b61273060a083018461247e565b979650505050505050565b6000604051905081810181811067ffffffffffffffff8211171561275e57600080fd5b8060405250919050565b600067ffffffffffffffff82111561277f57600080fd5b601f19601f8301169050602081019050919050565b600081519050919050565b600081519050919050565b600082825260208201905092915050565b600082825260208201905092915050565b60006127d7826127f0565b9050919050565b60006127e9826127f0565b9050919050565b600073ffffffffffffffffffffffffffffffffffffffff82169050919050565b6000819050919050565b600061282582612850565b9050919050565b600061283782612810565b9050919050565b600061284982612810565b9050919050565b600061285b82612862565b9050919050565b600061286d826127f0565b9050919050565b82818337600083830152505050565b60005b838110156128a1578082015181840152602081019050612886565b838111156128b0576000848401525b50505050565b6000601f19601f8301169050919050565b6128d0816127cc565b81146128db57600080fd5b50565b6128e781612810565b81146128f257600080fd5b5056fea365627a7a723158209fdc7af1fd9686b1a4786841be485d9bab18b4084e32495517daf66c6f0d585a6c6578706572696d656e74616cf564736f6c63430005100040",
  "source": "pragma solidity ^0.5.0;\r\npragma experimental ABIEncoderV2;\r\n\r\ncontract GiveNTake {\r\n  //string public name;\r\n  uint public usersCount = 0;\r\n  uint public cardsCount = 0;\r\n  uint public transactionsCount = 0;\r\n  \r\n\r\n  struct User {\r\n    uint id;\r\n    string name;\r\n    uint rate;\r\n    address owner;\r\n    uint cardAmount;\r\n    uint ratingCount;\r\n  }\r\n\r\n  struct Card {\r\n        uint id;\r\n        string headline;\r\n        string content;\r\n        uint price;\r\n        uint soldCount;\r\n        address payable owner;\r\n        uint ownerRate;  \r\n        uint isActive;\r\n    }\r\n\r\n  struct Transaction {\r\n    User buyer;\r\n    Card card;\r\n  }\r\n\r\n  event UserAdded(\r\n    uint id,\r\n    string name,\r\n    address owner\r\n  );\r\n\r\n  event CardCreated(\r\n        uint id,\r\n        string headline,\r\n        string content,\r\n        uint price,\r\n        uint soldCount,\r\n        address payable owner,\r\n        uint isActive\r\n    );\r\n\r\n  event CardBought(\r\n        uint id,\r\n        string headline,\r\n        string content,\r\n        uint price,\r\n        uint soldCount,\r\n        address payable owner\r\n    );\r\n\r\n  event UserRated(\r\n        address userAddress,\r\n        string name,\r\n        uint rate\r\n    );\r\n\r\n    mapping (uint => Transaction) public transactions;\r\n    mapping(uint => User) public users;\r\n    mapping(uint => Card) public cards;\r\n    mapping (address => User) public usersByAddress;\r\n    \r\n\r\n  constructor() public {\r\n  \r\n  }\r\n\r\n  function addUser(string memory _name) public {\r\n \r\n    usersCount ++;\r\n    users[usersCount] = User(usersCount, _name, 0, msg.sender,0, 1); // times I rated start with 1 to work with mod3\r\n    usersByAddress[msg.sender] = users[usersCount];\r\n    emit UserAdded(usersCount, _name, msg.sender);\r\n  }\r\n\r\n  function postOffer(string memory _headline, string memory _content, uint _price) public {\r\n        cardsCount ++;\r\n        User memory _owner = usersByAddress[msg.sender];\r\n        uint rate = _owner.rate;\r\n        cards[cardsCount] = Card(cardsCount, _headline, _content, _price, 0, msg.sender,rate, 1);\r\n        User memory curr_user = usersByAddress[msg.sender];\r\n\r\n        emit CardCreated(cardsCount, _headline, _content, _price, 0, msg.sender, 1);\r\n    }\r\n\r\n  function buyOffer(uint _cardId) public payable {\r\n        require(_cardId > 0 && _cardId <= cardsCount);\r\n\r\n        Card memory _card = cards[_cardId];\r\n        address payable _owner = _card.owner;\r\n        \r\n        _owner.transfer(msg.value);\r\n        _card.soldCount ++;\r\n        cards[_cardId] = _card; \r\n        transactionsCount++;\r\n        User memory buyer = usersByAddress[msg.sender];\r\n        transactions[transactionsCount] = Transaction(buyer, _card);\r\n\r\n        emit CardBought(cardsCount, _card.headline, _card.content, _card.price, _card.soldCount, msg.sender);\r\n\r\n    }\r\n  function rateSeller(address _sellerAddress) public {\r\n \r\n        usersByAddress[_sellerAddress].rate++;\r\n        User memory _user =  usersByAddress[_sellerAddress];\r\n        users[_user.id].rate++;   // update the user in the second array as well\r\n\r\n        // for each 5 times rating others, user earns a rate for himself\r\n        uint flag = 0;\r\n        User memory rater = usersByAddress[msg.sender];\r\n        if (rater.ratingCount % 3 == 0) {\r\n          rater.rate++;\r\n          flag = 1;\r\n        }\r\n        rater.ratingCount++;\r\n        usersByAddress[msg.sender] = rater;\r\n        users[rater.id] = rater;\r\n        \r\n        // update all their cards\r\n        uint i = 1;\r\n        for (i=1; i<=cardsCount; i++) {\r\n          if (cards[i].owner == _sellerAddress) {\r\n              cards[i].ownerRate++;\r\n          }\r\n          if (flag == 1 && cards[i].owner == msg.sender) {\r\n              cards[i].ownerRate++;\r\n          }\r\n        }\r\n\r\n        emit UserRated(_sellerAddress, _user.name, _user.rate);\r\n    }\r\n  function deleteCard(uint id) public {\r\n      Card storage toDelete = cards[id];\r\n      toDelete.isActive = 0;\r\n      delete cards[id];\r\n      cardsCount--;\r\n  }    \r\n\r\n}",
  "sourcePath": "C:\\Users\\sahar\\unevirsity\\blockchain\\src\\contracts\\GiveNTake.sol",
  "compiler": {
    "name": "solc",
    "version": "0.5.16+commit.9c3226ce.Emscripten.clang"
  },
  "schemaVersion": "3.4.3",
  "updatedAt": "2021-12-21T07:49:58.167Z",
  "networkType": "ethereum",
  "devdoc": {
    "methods": {}
  },
  "userdoc": {
    "methods": {}
  }
}