{
  "contractName": "GiveNTake",
  "abi": [
    {
      "inputs": [],
      "payable": false,
      "stateMutability": "nonpayable",
      "type": "constructor"
    },
    {
      "anonymous": false,
      "inputs": [
        {
          "indexed": false,
          "internalType": "uint256",
          "name": "id",
          "type": "uint256"
        },
        {
          "indexed": false,
          "internalType": "string",
          "name": "headline",
          "type": "string"
        },
        {
          "indexed": false,
          "internalType": "string",
          "name": "content",
          "type": "string"
        },
        {
          "indexed": false,
          "internalType": "uint256",
          "name": "price",
          "type": "uint256"
        },
        {
          "indexed": false,
          "internalType": "uint256",
          "name": "soldCount",
          "type": "uint256"
        },
        {
          "indexed": false,
          "internalType": "address payable",
          "name": "owner",
          "type": "address"
        }
      ],
      "name": "CardBought",
      "type": "event"
    },
    {
      "anonymous": false,
      "inputs": [
        {
          "indexed": false,
          "internalType": "uint256",
          "name": "id",
          "type": "uint256"
        },
        {
          "indexed": false,
          "internalType": "string",
          "name": "headline",
          "type": "string"
        },
        {
          "indexed": false,
          "internalType": "string",
          "name": "content",
          "type": "string"
        },
        {
          "indexed": false,
          "internalType": "uint256",
          "name": "price",
          "type": "uint256"
        },
        {
          "indexed": false,
          "internalType": "uint256",
          "name": "soldCount",
          "type": "uint256"
        },
        {
          "indexed": false,
          "internalType": "address payable",
          "name": "owner",
          "type": "address"
        },
        {
          "indexed": false,
          "internalType": "uint256",
          "name": "isActive",
          "type": "uint256"
        }
      ],
      "name": "CardCreated",
      "type": "event"
    },
    {
      "anonymous": false,
      "inputs": [
        {
          "indexed": false,
          "internalType": "uint256",
          "name": "id",
          "type": "uint256"
        },
        {
          "indexed": false,
          "internalType": "string",
          "name": "name",
          "type": "string"
        },
        {
          "indexed": false,
          "internalType": "address",
          "name": "owner",
          "type": "address"
        }
      ],
      "name": "UserAdded",
      "type": "event"
    },
    {
      "anonymous": false,
      "inputs": [
        {
          "indexed": false,
          "internalType": "uint256",
          "name": "id",
          "type": "uint256"
        },
        {
          "indexed": false,
          "internalType": "string",
          "name": "name",
          "type": "string"
        },
        {
          "indexed": false,
          "internalType": "uint256",
          "name": "rate",
          "type": "uint256"
        }
      ],
      "name": "UserRated",
      "type": "event"
    },
    {
      "constant": true,
      "inputs": [
        {
          "internalType": "uint256",
          "name": "",
          "type": "uint256"
        }
      ],
      "name": "cards",
      "outputs": [
        {
          "internalType": "uint256",
          "name": "id",
          "type": "uint256"
        },
        {
          "internalType": "string",
          "name": "headline",
          "type": "string"
        },
        {
          "internalType": "string",
          "name": "content",
          "type": "string"
        },
        {
          "internalType": "uint256",
          "name": "price",
          "type": "uint256"
        },
        {
          "internalType": "uint256",
          "name": "soldCount",
          "type": "uint256"
        },
        {
          "internalType": "address payable",
          "name": "owner",
          "type": "address"
        },
        {
          "internalType": "uint256",
          "name": "isActive",
          "type": "uint256"
        }
      ],
      "payable": false,
      "stateMutability": "view",
      "type": "function"
    },
    {
      "constant": true,
      "inputs": [],
      "name": "cardsCount",
      "outputs": [
        {
          "internalType": "uint256",
          "name": "",
          "type": "uint256"
        }
      ],
      "payable": false,
      "stateMutability": "view",
      "type": "function"
    },
    {
      "constant": true,
      "inputs": [
        {
          "internalType": "uint256",
          "name": "",
          "type": "uint256"
        }
      ],
      "name": "users",
      "outputs": [
        {
          "internalType": "uint256",
          "name": "id",
          "type": "uint256"
        },
        {
          "internalType": "string",
          "name": "name",
          "type": "string"
        },
        {
          "internalType": "uint256",
          "name": "rate",
          "type": "uint256"
        },
        {
          "internalType": "address",
          "name": "owner",
          "type": "address"
        },
        {
          "internalType": "uint256",
          "name": "cardAmount",
          "type": "uint256"
        }
      ],
      "payable": false,
      "stateMutability": "view",
      "type": "function"
    },
    {
      "constant": true,
      "inputs": [
        {
          "internalType": "address",
          "name": "",
          "type": "address"
        }
      ],
      "name": "usersByAddress",
      "outputs": [
        {
          "internalType": "uint256",
          "name": "id",
          "type": "uint256"
        },
        {
          "internalType": "string",
          "name": "name",
          "type": "string"
        },
        {
          "internalType": "uint256",
          "name": "rate",
          "type": "uint256"
        },
        {
          "internalType": "address",
          "name": "owner",
          "type": "address"
        },
        {
          "internalType": "uint256",
          "name": "cardAmount",
          "type": "uint256"
        }
      ],
      "payable": false,
      "stateMutability": "view",
      "type": "function"
    },
    {
      "constant": true,
      "inputs": [],
      "name": "usersCount",
      "outputs": [
        {
          "internalType": "uint256",
          "name": "",
          "type": "uint256"
        }
      ],
      "payable": false,
      "stateMutability": "view",
      "type": "function"
    },
    {
      "constant": false,
      "inputs": [
        {
          "internalType": "string",
          "name": "_name",
          "type": "string"
        }
      ],
      "name": "addUser",
      "outputs": [],
      "payable": false,
      "stateMutability": "nonpayable",
      "type": "function"
    },
    {
      "constant": false,
      "inputs": [
        {
          "internalType": "string",
          "name": "_headline",
          "type": "string"
        },
        {
          "internalType": "string",
          "name": "_content",
          "type": "string"
        },
        {
          "internalType": "uint256",
          "name": "_price",
          "type": "uint256"
        }
      ],
      "name": "postOffer",
      "outputs": [],
      "payable": false,
      "stateMutability": "nonpayable",
      "type": "function"
    },
    {
      "constant": false,
      "inputs": [
        {
          "components": [
            {
              "internalType": "uint256",
              "name": "id",
              "type": "uint256"
            },
            {
              "internalType": "string",
              "name": "name",
              "type": "string"
            },
            {
              "internalType": "uint256",
              "name": "rate",
              "type": "uint256"
            },
            {
              "internalType": "address",
              "name": "owner",
              "type": "address"
            },
            {
              "internalType": "uint256",
              "name": "cardAmount",
              "type": "uint256"
            },
            {
              "internalType": "uint256[]",
              "name": "mycards",
              "type": "uint256[]"
            }
          ],
          "internalType": "struct GiveNTake.User",
          "name": "currUser",
          "type": "tuple"
        },
        {
          "components": [
            {
              "internalType": "uint256",
              "name": "id",
              "type": "uint256"
            },
            {
              "internalType": "string",
              "name": "headline",
              "type": "string"
            },
            {
              "internalType": "string",
              "name": "content",
              "type": "string"
            },
            {
              "internalType": "uint256",
              "name": "price",
              "type": "uint256"
            },
            {
              "internalType": "uint256",
              "name": "soldCount",
              "type": "uint256"
            },
            {
              "internalType": "address payable",
              "name": "owner",
              "type": "address"
            },
            {
              "internalType": "uint256",
              "name": "isActive",
              "type": "uint256"
            }
          ],
          "internalType": "struct GiveNTake.Card",
          "name": "currCard",
          "type": "tuple"
        }
      ],
      "name": "add_cardToUser",
      "outputs": [],
      "payable": false,
      "stateMutability": "nonpayable",
      "type": "function"
    },
    {
      "constant": false,
      "inputs": [
        {
          "internalType": "uint256",
          "name": "_cardId",
          "type": "uint256"
        }
      ],
      "name": "buyOffer",
      "outputs": [],
      "payable": true,
      "stateMutability": "payable",
      "type": "function"
    },
    {
      "constant": false,
      "inputs": [
        {
          "internalType": "uint256",
          "name": "_sellerId",
          "type": "uint256"
        }
      ],
      "name": "rateSeller",
      "outputs": [],
      "payable": false,
      "stateMutability": "nonpayable",
      "type": "function"
    },
    {
      "constant": false,
      "inputs": [
        {
          "internalType": "uint256",
          "name": "id",
          "type": "uint256"
        }
      ],
      "name": "deleteCard",
      "outputs": [],
      "payable": false,
      "stateMutability": "nonpayable",
      "type": "function"
    }
  ],
  "bytecode": "0x6080604052600080556000600155600060025534801561001e57600080fd5b506121b38061002e6000396000f3fe60806040526004361061009c5760003560e01c80637f1d08cc116100645780637f1d08cc146101a05780638dc10768146101c95780639ecce7001461020c578063b6868c0814610228578063bd6c675614610251578063d17c2b541461027c5761009c565b806318b8275a146100a1578063365b98b2146100ca5780635e1acf651461010b5780636ba13a82146101345780636bf693c41461015f575b600080fd5b3480156100ad57600080fd5b506100c860048036036100c39190810190611ae1565b6102a5565b005b3480156100d657600080fd5b506100f160048036036100ec9190810190611c0d565b610510565b604051610102959493929190611f02565b60405180910390f35b34801561011757600080fd5b50610132600480360361012d9190810190611c0d565b6105fe565b005b34801561014057600080fd5b506101496106b3565b6040516101569190611d02565b60405180910390f35b34801561016b57600080fd5b5061018660048036036101819190810190611ab8565b6106b9565b604051610197959493929190611f02565b60405180910390f35b3480156101ac57600080fd5b506101c760048036036101c29190810190611b22565b6107a7565b005b3480156101d557600080fd5b506101f060048036036101eb9190810190611c0d565b610cc1565b6040516102039796959493929190611e47565b60405180910390f35b61022660048036036102219190810190611c0d565b610e53565b005b34801561023457600080fd5b5061024f600480360361024a9190810190611ba1565b6111d0565b005b34801561025d57600080fd5b5061026661122c565b6040516102739190611d02565b60405180910390f35b34801561028857600080fd5b506102a3600480360361029e9190810190611c0d565b611232565b005b600080815480929190600101919050555060606040518060c001604052806000548152602001838152602001600081526020013373ffffffffffffffffffffffffffffffffffffffff168152602001600081526020018281525060036000805481526020019081526020016000206000820151816000015560208201518160010190805190602001906103399291906114f0565b506040820151816002015560608201518160030160006101000a81548173ffffffffffffffffffffffffffffffffffffffff021916908373ffffffffffffffffffffffffffffffffffffffff1602179055506080820151816004015560a08201518160050190805190602001906103b1929190611570565b509050506003600080548152602001908152602001600020600560003373ffffffffffffffffffffffffffffffffffffffff1673ffffffffffffffffffffffffffffffffffffffff16815260200190815260200160002060008201548160000155600182018160010190805460018160011615610100020316600290046104399291906115bd565b50600282015481600201556003820160009054906101000a900473ffffffffffffffffffffffffffffffffffffffff168160030160006101000a81548173ffffffffffffffffffffffffffffffffffffffff021916908373ffffffffffffffffffffffffffffffffffffffff1602179055506004820154816004015560058201816005019080546104cb929190611644565b509050507f514af2a82370fd69109ef67206736f3880c4f9c15d2f2acd798b782ae37fdc5a600054833360405161050493929190611d1d565b60405180910390a15050565b6003602052806000526040600020600091509050806000015490806001018054600181600116156101000203166002900480601f0160208091040260200160405190810160405280929190818152602001828054600181600116156101000203166002900480156105c25780601f10610597576101008083540402835291602001916105c2565b820191906000526020600020905b8154815290600101906020018083116105a557829003601f168201915b5050505050908060020154908060030160009054906101000a900473ffffffffffffffffffffffffffffffffffffffff16908060040154905085565b6000600460008381526020019081526020016000209050600081600601819055506004600083815260200190815260200160002060008082016000905560018201600061064b9190611696565b60028201600061065b9190611696565b600382016000905560048201600090556005820160006101000a81549073ffffffffffffffffffffffffffffffffffffffff021916905560068201600090555050600160008154809291906001900391905055505050565b60005481565b6005602052806000526040600020600091509050806000015490806001018054600181600116156101000203166002900480601f01602080910402602001604051908101604052809291908181526020018280546001816001161561010002031660029004801561076b5780601f106107405761010080835404028352916020019161076b565b820191906000526020600020905b81548152906001019060200180831161074e57829003601f168201915b5050505050908060020154908060030160009054906101000a900473ffffffffffffffffffffffffffffffffffffffff16908060040154905085565b6001600081548092919060010191905055506040518060e001604052806001548152602001848152602001838152602001828152602001600081526020013373ffffffffffffffffffffffffffffffffffffffff16815260200160018152506004600060015481526020019081526020016000206000820151816000015560208201518160010190805190602001906108419291906114f0565b50604082015181600201908051906020019061085e9291906114f0565b50606082015181600301556080820151816004015560a08201518160050160006101000a81548173ffffffffffffffffffffffffffffffffffffffff021916908373ffffffffffffffffffffffffffffffffffffffff16021790555060c082015181600601559050506108cf6116de565b600560003373ffffffffffffffffffffffffffffffffffffffff1673ffffffffffffffffffffffffffffffffffffffff1681526020019081526020016000206040518060c001604052908160008201548152602001600182018054600181600116156101000203166002900480601f0160208091040260200160405190810160405280929190818152602001828054600181600116156101000203166002900480156109bc5780601f10610991576101008083540402835291602001916109bc565b820191906000526020600020905b81548152906001019060200180831161099f57829003601f168201915b50505050508152602001600282015481526020016003820160009054906101000a900473ffffffffffffffffffffffffffffffffffffffff1673ffffffffffffffffffffffffffffffffffffffff1673ffffffffffffffffffffffffffffffffffffffff1681526020016004820154815260200160058201805480602002602001604051908101604052809291908181526020018280548015610a7e57602002820191906000526020600020905b815481526020019060010190808311610a6a575b5050505050815250509050610c74816004600060015481526020019081526020016000206040518060e001604052908160008201548152602001600182018054600181600116156101000203166002900480601f016020809104026020016040519081016040528092919081815260200182805460018160011615610100020316600290048015610b505780601f10610b2557610100808354040283529160200191610b50565b820191906000526020600020905b815481529060010190602001808311610b3357829003601f168201915b50505050508152602001600282018054600181600116156101000203166002900480601f016020809104026020016040519081016040528092919081815260200182805460018160011615610100020316600290048015610bf25780601f10610bc757610100808354040283529160200191610bf2565b820191906000526020600020905b815481529060010190602001808311610bd557829003601f168201915b5050505050815260200160038201548152602001600482015481526020016005820160009054906101000a900473ffffffffffffffffffffffffffffffffffffffff1673ffffffffffffffffffffffffffffffffffffffff1673ffffffffffffffffffffffffffffffffffffffff1681526020016006820154815250506111d0565b7fb4c33a6a401f72300c2d78746515217417479d3c3c941cb6981b287fc2b3f73b6001548585856000336001604051610cb39796959493929190611d5b565b60405180910390a150505050565b6004602052806000526040600020600091509050806000015490806001018054600181600116156101000203166002900480601f016020809104026020016040519081016040528092919081815260200182805460018160011615610100020316600290048015610d735780601f10610d4857610100808354040283529160200191610d73565b820191906000526020600020905b815481529060010190602001808311610d5657829003601f168201915b505050505090806002018054600181600116156101000203166002900480601f016020809104026020016040519081016040528092919081815260200182805460018160011615610100020316600290048015610e115780601f10610de657610100808354040283529160200191610e11565b820191906000526020600020905b815481529060010190602001808311610df457829003601f168201915b5050505050908060030154908060040154908060050160009054906101000a900473ffffffffffffffffffffffffffffffffffffffff16908060060154905087565b600081118015610e6557506001548111155b610e6e57600080fd5b610e7661172a565b600460008381526020019081526020016000206040518060e001604052908160008201548152602001600182018054600181600116156101000203166002900480601f016020809104026020016040519081016040528092919081815260200182805460018160011615610100020316600290048015610f375780601f10610f0c57610100808354040283529160200191610f37565b820191906000526020600020905b815481529060010190602001808311610f1a57829003601f168201915b50505050508152602001600282018054600181600116156101000203166002900480601f016020809104026020016040519081016040528092919081815260200182805460018160011615610100020316600290048015610fd95780601f10610fae57610100808354040283529160200191610fd9565b820191906000526020600020905b815481529060010190602001808311610fbc57829003601f168201915b5050505050815260200160038201548152602001600482015481526020016005820160009054906101000a900473ffffffffffffffffffffffffffffffffffffffff1673ffffffffffffffffffffffffffffffffffffffff1673ffffffffffffffffffffffffffffffffffffffff168152602001600682015481525050905060008160a0015190508073ffffffffffffffffffffffffffffffffffffffff166108fc349081150290604051600060405180830381858888f193505050501580156110a7573d6000803e3d6000fd5b508160800180518091906001018152505081600460008581526020019081526020016000206000820151816000015560208201518160010190805190602001906110f29291906114f0565b50604082015181600201908051906020019061110f9291906114f0565b50606082015181600301556080820151816004015560a08201518160050160006101000a81548173ffffffffffffffffffffffffffffffffffffffff021916908373ffffffffffffffffffffffffffffffffffffffff16021790555060c082015181600601559050507f4b478fe60c8315a3a592faa2f0d1dec44f3cdbb27316336c33a3fa4174a8d66d6001548360200151846040015185606001518660800151336040516111c396959493929190611dd8565b60405180910390a1505050565b600360008360000151815260200190815260200160002060050181600001519080600181540180825580915050906001820390600052602060002001600090919290919091505550816080018051809190600101815250505050565b60015481565b60008111801561124457506000548111155b61124d57600080fd5b6112556116de565b600360008381526020019081526020016000206040518060c001604052908160008201548152602001600182018054600181600116156101000203166002900480601f0160208091040260200160405190810160405280929190818152602001828054600181600116156101000203166002900480156113165780601f106112eb57610100808354040283529160200191611316565b820191906000526020600020905b8154815290600101906020018083116112f957829003601f168201915b50505050508152602001600282015481526020016003820160009054906101000a900473ffffffffffffffffffffffffffffffffffffffff1673ffffffffffffffffffffffffffffffffffffffff1673ffffffffffffffffffffffffffffffffffffffff16815260200160048201548152602001600582018054806020026020016040519081016040528092919081815260200182805480156113d857602002820191906000526020600020905b8154815260200190600101908083116113c4575b505050505081525050905080604001805180919060010181525050806003600084815260200190815260200160002060008201518160000155602082015181600101908051906020019061142d9291906114f0565b506040820151816002015560608201518160030160006101000a81548173ffffffffffffffffffffffffffffffffffffffff021916908373ffffffffffffffffffffffffffffffffffffffff1602179055506080820151816004015560a08201518160050190805190602001906114a5929190611570565b509050507fcfa1c556a6cc93eb2b052596969a05ed8c341b81ef433e7bbda74829d6e85f4282826020015183604001516040516114e493929190611ec4565b60405180910390a15050565b828054600181600116156101000203166002900490600052602060002090601f016020900481019282601f1061153157805160ff191683800117855561155f565b8280016001018555821561155f579182015b8281111561155e578251825591602001919060010190611543565b5b50905061156c919061177d565b5090565b8280548282559060005260206000209081019282156115ac579160200282015b828111156115ab578251825591602001919060010190611590565b5b5090506115b9919061177d565b5090565b828054600181600116156101000203166002900490600052602060002090601f016020900481019282601f106115f65780548555611633565b8280016001018555821561163357600052602060002091601f016020900482015b82811115611632578254825591600101919060010190611617565b5b509050611640919061177d565b5090565b8280548282559060005260206000209081019282156116855760005260206000209182015b82811115611684578254825591600101919060010190611669565b5b509050611692919061177d565b5090565b50805460018160011615610100020316600290046000825580601f106116bc57506116db565b601f0160209004906000526020600020908101906116da919061177d565b5b50565b6040518060c00160405280600081526020016060815260200160008152602001600073ffffffffffffffffffffffffffffffffffffffff16815260200160008152602001606081525090565b6040518060e001604052806000815260200160608152602001606081526020016000815260200160008152602001600073ffffffffffffffffffffffffffffffffffffffff168152602001600081525090565b61179f91905b8082111561179b576000816000905550600101611783565b5090565b90565b6000813590506117b18161212b565b92915050565b6000813590506117c681612142565b92915050565b600082601f8301126117dd57600080fd5b81356117f06117eb82611f89565b611f5c565b9150818183526020840193506020810190508385602084028201111561181557600080fd5b60005b83811015611845578161182b8882611aa3565b845260208401935060208301925050600181019050611818565b5050505092915050565b600082601f83011261186057600080fd5b813561187361186e82611fb1565b611f5c565b9150808252602083016020830185838301111561188f57600080fd5b61189a8382846120d8565b50505092915050565b600082601f8301126118b457600080fd5b81356118c76118c282611fdd565b611f5c565b915080825260208301602083018583830111156118e357600080fd5b6118ee8382846120d8565b50505092915050565b600060e0828403121561190957600080fd5b61191360e0611f5c565b9050600061192384828501611aa3565b600083015250602082013567ffffffffffffffff81111561194357600080fd5b61194f8482850161184f565b602083015250604082013567ffffffffffffffff81111561196f57600080fd5b61197b8482850161184f565b604083015250606061198f84828501611aa3565b60608301525060806119a384828501611aa3565b60808301525060a06119b7848285016117b7565b60a08301525060c06119cb84828501611aa3565b60c08301525092915050565b600060c082840312156119e957600080fd5b6119f360c0611f5c565b90506000611a0384828501611aa3565b600083015250602082013567ffffffffffffffff811115611a2357600080fd5b611a2f8482850161184f565b6020830152506040611a4384828501611aa3565b6040830152506060611a57848285016117a2565b6060830152506080611a6b84828501611aa3565b60808301525060a082013567ffffffffffffffff811115611a8b57600080fd5b611a97848285016117cc565b60a08301525092915050565b600081359050611ab281612159565b92915050565b600060208284031215611aca57600080fd5b6000611ad8848285016117a2565b91505092915050565b600060208284031215611af357600080fd5b600082013567ffffffffffffffff811115611b0d57600080fd5b611b19848285016118a3565b91505092915050565b600080600060608486031215611b3757600080fd5b600084013567ffffffffffffffff811115611b5157600080fd5b611b5d868287016118a3565b935050602084013567ffffffffffffffff811115611b7a57600080fd5b611b86868287016118a3565b9250506040611b9786828701611aa3565b9150509250925092565b60008060408385031215611bb457600080fd5b600083013567ffffffffffffffff811115611bce57600080fd5b611bda858286016119d7565b925050602083013567ffffffffffffffff811115611bf757600080fd5b611c03858286016118f7565b9150509250929050565b600060208284031215611c1f57600080fd5b6000611c2d84828501611aa3565b91505092915050565b611c3f8161207e565b82525050565b611c4e81612042565b82525050565b611c5d81612030565b82525050565b611c6c81612090565b82525050565b611c7b816120a2565b82525050565b6000611c8c82612014565b611c96818561201f565b9350611ca68185602086016120e7565b611caf8161211a565b840191505092915050565b6000611cc582612009565b611ccf818561201f565b9350611cdf8185602086016120e7565b611ce88161211a565b840191505092915050565b611cfc81612074565b82525050565b6000602082019050611d176000830184611cf3565b92915050565b6000606082019050611d326000830186611cf3565b8181036020830152611d448185611c81565b9050611d536040830184611c36565b949350505050565b600060e082019050611d70600083018a611cf3565b8181036020830152611d828189611c81565b90508181036040830152611d968188611c81565b9050611da56060830187611cf3565b611db26080830186611c63565b611dbf60a0830185611c45565b611dcc60c0830184611c72565b98975050505050505050565b600060c082019050611ded6000830189611cf3565b8181036020830152611dff8188611cba565b90508181036040830152611e138187611cba565b9050611e226060830186611cf3565b611e2f6080830185611cf3565b611e3c60a0830184611c45565b979650505050505050565b600060e082019050611e5c600083018a611cf3565b8181036020830152611e6e8189611cba565b90508181036040830152611e828188611cba565b9050611e916060830187611cf3565b611e9e6080830186611cf3565b611eab60a0830185611c45565b611eb860c0830184611cf3565b98975050505050505050565b6000606082019050611ed96000830186611cf3565b8181036020830152611eeb8185611cba565b9050611efa6040830184611cf3565b949350505050565b600060a082019050611f176000830188611cf3565b8181036020830152611f298187611cba565b9050611f386040830186611cf3565b611f456060830185611c54565b611f526080830184611cf3565b9695505050505050565b6000604051905081810181811067ffffffffffffffff82111715611f7f57600080fd5b8060405250919050565b600067ffffffffffffffff821115611fa057600080fd5b602082029050602081019050919050565b600067ffffffffffffffff821115611fc857600080fd5b601f19601f8301169050602081019050919050565b600067ffffffffffffffff821115611ff457600080fd5b601f19601f8301169050602081019050919050565b600081519050919050565b600081519050919050565b600082825260208201905092915050565b600061203b82612054565b9050919050565b600061204d82612054565b9050919050565b600073ffffffffffffffffffffffffffffffffffffffff82169050919050565b6000819050919050565b6000612089826120b4565b9050919050565b600061209b82612074565b9050919050565b60006120ad82612074565b9050919050565b60006120bf826120c6565b9050919050565b60006120d182612054565b9050919050565b82818337600083830152505050565b60005b838110156121055780820151818401526020810190506120ea565b83811115612114576000848401525b50505050565b6000601f19601f8301169050919050565b61213481612030565b811461213f57600080fd5b50565b61214b81612042565b811461215657600080fd5b50565b61216281612074565b811461216d57600080fd5b5056fea365627a7a72315820d89cfa650eecb529c647cb836cb59eade38f44a2b2fa8feb4d3460e8bc11da316c6578706572696d656e74616cf564736f6c63430005100040",
  "source": "pragma solidity ^0.5.0;\r\npragma experimental ABIEncoderV2;\r\n\r\ncontract GiveNTake {\r\n  //string public name;\r\n  uint public usersCount = 0;\r\n  uint public cardsCount = 0;\r\n  uint card_amount = 0;\r\n  \r\n\r\n  struct User {\r\n    uint id;\r\n    string name;\r\n    uint rate;\r\n    address owner;\r\n    uint cardAmount;\r\n    uint[] mycards;\r\n  }\r\n\r\n  struct Card {\r\n        uint id;\r\n        string headline;\r\n        string content;\r\n        uint price;\r\n        uint soldCount;\r\n        address payable owner;\r\n        uint isActive;\r\n    }\r\n\r\n  event UserAdded(\r\n    uint id,\r\n    string name,\r\n    address owner\r\n  );\r\n\r\n  event CardCreated(\r\n        uint id,\r\n        string headline,\r\n        string content,\r\n        uint price,\r\n        uint soldCount,\r\n        address payable owner,\r\n        uint isActive\r\n    );\r\n\r\n  event CardBought(\r\n        uint id,\r\n        string headline,\r\n        string content,\r\n        uint price,\r\n        uint soldCount,\r\n        address payable owner\r\n    );\r\n\r\n  event UserRated(\r\n        uint id,\r\n        string name,\r\n        uint rate\r\n    );\r\n\r\n    mapping(uint => User) public users;\r\n    mapping(uint => Card) public cards;\r\n    mapping (address => User) public usersByAddress;\r\n\r\n  constructor() public {\r\n    //name = \"Decentragram\";\r\n    // postOffer(\"Example offer\", \"Example content\", 10);\r\n  }\r\n\r\n  function addUser(string memory _name) public {\r\n    // Increment image id\r\n    usersCount ++;\r\n    uint[] memory my_cards;\r\n    users[usersCount] = User(usersCount, _name, 0, msg.sender,0, my_cards);\r\n    usersByAddress[msg.sender] = users[usersCount];\r\n\r\n    emit UserAdded(usersCount, _name, msg.sender);\r\n  }\r\n\r\n  function postOffer(string memory _headline, string memory _content, uint _price) public {\r\n        cardsCount ++;\r\n        cards[cardsCount] = Card(cardsCount, _headline, _content, _price, 0, msg.sender, 1);\r\n        User memory curr_user = usersByAddress[msg.sender];\r\n      \r\n        //add new card to user list\r\n        add_cardToUser(curr_user, cards[cardsCount]);\r\n\r\n        emit CardCreated(cardsCount, _headline, _content, _price, 0, msg.sender, 1);\r\n    }\r\n  function add_cardToUser(User memory currUser, Card memory currCard) public{\r\n        //add card to user card list\r\n        users[currUser.id].mycards.push(currCard.id);\r\n        \r\n        //currUser.my_cards[curr_amount] = currCard;\r\n        currUser.cardAmount++;\r\n    }\r\n  function buyOffer(uint _cardId) public payable {\r\n        require(_cardId > 0 && _cardId <= cardsCount);\r\n\r\n        Card memory _card = cards[_cardId];\r\n        address payable _owner = _card.owner;\r\n        \r\n        _owner.transfer(msg.value);\r\n        _card.soldCount ++;\r\n        cards[_cardId] = _card;     // update the card\r\n\r\n        emit CardBought(cardsCount, _card.headline, _card.content, _card.price, _card.soldCount, msg.sender);\r\n\r\n    }\r\n  function rateSeller(uint _sellerId) public {\r\n        require(_sellerId > 0 && _sellerId <= usersCount);\r\n      \r\n        // perhaps add that I can only rate a user once\r\n        User memory _user =  users[_sellerId];\r\n        _user.rate ++;\r\n        users[_sellerId] = _user;\r\n\r\n        emit UserRated(_sellerId, _user.name, _user.rate);\r\n    }\r\n  function deleteCard(uint id) public {\r\n      Card storage toDelete = cards[id];\r\n      toDelete.isActive = 0;\r\n\r\n       /* Card storage toDelete = cards[id];\r\n        require(toDelete.owner == msg.sender);\r\n        User memory card_owner = usersByAddress[toDelete.owner];\r\n        for(uint i = 1; i<card_owner.mycards.length; i++){\r\n          if(card_owner.mycards[i]==id){\r\n            for(uint j = i ; j<card_owner.mycards.length; j++){\r\n              card_owner.mycards[j] = card_owner.mycards[j+1];\r\n            }\r\n          }\r\n        }\r\n        //need to find card id in mycards array, delete it and move everything one to the left\r\n       /* for (uint i = card_owner.id; i<card_owner.mycards.length-1; i++){\r\n            card_owner.mycards[i] = card_owner.mycards[i+1];\r\n        }*/\r\n        //move all cards in cards array \r\n        /*for(uint i = cards[toDelete.id]; i <cards.length()-1; i++){\r\n            cards[i] = cards[i+1];\r\n        }*/\r\n        //delete card_owner.mycards[card_owner.mycards.length-1];\r\n      delete cards[id];\r\n      cardsCount--;\r\n  }    \r\n\r\n}",
  "sourcePath": "C:\\Users\\zivyu\\blockchain proj\\blockchain\\blockchain\\src\\contracts\\GiveNTake.sol",
  "compiler": {
    "name": "solc",
    "version": "0.5.16+commit.9c3226ce.Emscripten.clang"
  },
  "schemaVersion": "3.4.3",
  "updatedAt": "2021-12-18T22:44:46.994Z",
  "networkType": "ethereum",
  "devdoc": {
    "methods": {}
  },
  "userdoc": {
    "methods": {}
  }
}