{
  "contractName": "GiveNTake",
  "abi": [
    {
      "inputs": [],
      "payable": false,
      "stateMutability": "nonpayable",
      "type": "constructor"
    },
    {
      "anonymous": false,
      "inputs": [
        {
          "indexed": false,
          "internalType": "uint256",
          "name": "id",
          "type": "uint256"
        },
        {
          "indexed": false,
          "internalType": "string",
          "name": "headline",
          "type": "string"
        },
        {
          "indexed": false,
          "internalType": "string",
          "name": "content",
          "type": "string"
        },
        {
          "indexed": false,
          "internalType": "uint256",
          "name": "price",
          "type": "uint256"
        },
        {
          "indexed": false,
          "internalType": "uint256",
          "name": "soldCount",
          "type": "uint256"
        },
        {
          "indexed": false,
          "internalType": "address payable",
          "name": "owner",
          "type": "address"
        }
      ],
      "name": "CardBought",
      "type": "event"
    },
    {
      "anonymous": false,
      "inputs": [
        {
          "indexed": false,
          "internalType": "uint256",
          "name": "id",
          "type": "uint256"
        },
        {
          "indexed": false,
          "internalType": "string",
          "name": "headline",
          "type": "string"
        },
        {
          "indexed": false,
          "internalType": "string",
          "name": "content",
          "type": "string"
        },
        {
          "indexed": false,
          "internalType": "uint256",
          "name": "price",
          "type": "uint256"
        },
        {
          "indexed": false,
          "internalType": "uint256",
          "name": "soldCount",
          "type": "uint256"
        },
        {
          "indexed": false,
          "internalType": "address payable",
          "name": "owner",
          "type": "address"
        },
        {
          "indexed": false,
          "internalType": "uint256",
          "name": "isActive",
          "type": "uint256"
        }
      ],
      "name": "CardCreated",
      "type": "event"
    },
    {
      "anonymous": false,
      "inputs": [
        {
          "indexed": false,
          "internalType": "uint256",
          "name": "id",
          "type": "uint256"
        },
        {
          "indexed": false,
          "internalType": "string",
          "name": "name",
          "type": "string"
        },
        {
          "indexed": false,
          "internalType": "address",
          "name": "owner",
          "type": "address"
        }
      ],
      "name": "UserAdded",
      "type": "event"
    },
    {
      "anonymous": false,
      "inputs": [
        {
          "indexed": false,
          "internalType": "uint256",
          "name": "id",
          "type": "uint256"
        },
        {
          "indexed": false,
          "internalType": "string",
          "name": "name",
          "type": "string"
        },
        {
          "indexed": false,
          "internalType": "uint256",
          "name": "rate",
          "type": "uint256"
        }
      ],
      "name": "UserRated",
      "type": "event"
    },
    {
      "constant": true,
      "inputs": [
        {
          "internalType": "uint256",
          "name": "",
          "type": "uint256"
        }
      ],
      "name": "cards",
      "outputs": [
        {
          "internalType": "uint256",
          "name": "id",
          "type": "uint256"
        },
        {
          "internalType": "string",
          "name": "headline",
          "type": "string"
        },
        {
          "internalType": "string",
          "name": "content",
          "type": "string"
        },
        {
          "internalType": "uint256",
          "name": "price",
          "type": "uint256"
        },
        {
          "internalType": "uint256",
          "name": "soldCount",
          "type": "uint256"
        },
        {
          "internalType": "address payable",
          "name": "owner",
          "type": "address"
        },
        {
          "internalType": "uint256",
          "name": "isActive",
          "type": "uint256"
        }
      ],
      "payable": false,
      "stateMutability": "view",
      "type": "function"
    },
    {
      "constant": true,
      "inputs": [],
      "name": "cardsCount",
      "outputs": [
        {
          "internalType": "uint256",
          "name": "",
          "type": "uint256"
        }
      ],
      "payable": false,
      "stateMutability": "view",
      "type": "function"
    },
    {
      "constant": true,
      "inputs": [
        {
          "internalType": "uint256",
          "name": "",
          "type": "uint256"
        }
      ],
      "name": "users",
      "outputs": [
        {
          "internalType": "uint256",
          "name": "id",
          "type": "uint256"
        },
        {
          "internalType": "string",
          "name": "name",
          "type": "string"
        },
        {
          "internalType": "uint256",
          "name": "rate",
          "type": "uint256"
        },
        {
          "internalType": "address",
          "name": "owner",
          "type": "address"
        },
        {
          "internalType": "uint256",
          "name": "cardAmount",
          "type": "uint256"
        }
      ],
      "payable": false,
      "stateMutability": "view",
      "type": "function"
    },
    {
      "constant": true,
      "inputs": [
        {
          "internalType": "address",
          "name": "",
          "type": "address"
        }
      ],
      "name": "usersByAddress",
      "outputs": [
        {
          "internalType": "uint256",
          "name": "id",
          "type": "uint256"
        },
        {
          "internalType": "string",
          "name": "name",
          "type": "string"
        },
        {
          "internalType": "uint256",
          "name": "rate",
          "type": "uint256"
        },
        {
          "internalType": "address",
          "name": "owner",
          "type": "address"
        },
        {
          "internalType": "uint256",
          "name": "cardAmount",
          "type": "uint256"
        }
      ],
      "payable": false,
      "stateMutability": "view",
      "type": "function"
    },
    {
      "constant": true,
      "inputs": [],
      "name": "usersCount",
      "outputs": [
        {
          "internalType": "uint256",
          "name": "",
          "type": "uint256"
        }
      ],
      "payable": false,
      "stateMutability": "view",
      "type": "function"
    },
    {
      "constant": false,
      "inputs": [
        {
          "internalType": "string",
          "name": "_name",
          "type": "string"
        }
      ],
      "name": "addUser",
      "outputs": [],
      "payable": false,
      "stateMutability": "nonpayable",
      "type": "function"
    },
    {
      "constant": false,
      "inputs": [
        {
          "internalType": "string",
          "name": "_headline",
          "type": "string"
        },
        {
          "internalType": "string",
          "name": "_content",
          "type": "string"
        },
        {
          "internalType": "uint256",
          "name": "_price",
          "type": "uint256"
        }
      ],
      "name": "postOffer",
      "outputs": [],
      "payable": false,
      "stateMutability": "nonpayable",
      "type": "function"
    },
    {
      "constant": false,
      "inputs": [
        {
          "internalType": "uint256",
          "name": "_cardId",
          "type": "uint256"
        }
      ],
      "name": "buyOffer",
      "outputs": [],
      "payable": false,
      "stateMutability": "nonpayable",
      "type": "function"
    },
    {
      "constant": false,
      "inputs": [
        {
          "internalType": "uint256",
          "name": "id",
          "type": "uint256"
        }
      ],
      "name": "deleteCard",
      "outputs": [],
      "payable": false,
      "stateMutability": "nonpayable",
      "type": "function"
    }
  ],
  "bytecode": "0x6080604052600080556000600155600060025534801561001e57600080fd5b50611be78061002e6000396000f3fe608060405234801561001057600080fd5b50600436106100935760003560e01c80636bf693c4116100665780636bf693c41461028e5780637f1d08cc146103935780638dc10768146104ef5780639ecce70014610651578063bd6c67561461067f57610093565b806318b8275a14610098578063365b98b2146101535780635e1acf65146102425780636ba13a8214610270575b600080fd5b610151600480360360208110156100ae57600080fd5b81019080803590602001906401000000008111156100cb57600080fd5b8201836020820111156100dd57600080fd5b803590602001918460018302840111640100000000831117156100ff57600080fd5b91908080601f016020809104026020016040519081016040528093929190818152602001838380828437600081840152601f19601f82011690508083019250505050505050919291929050505061069d565b005b61017f6004803603602081101561016957600080fd5b81019080803590602001909291905050506109a5565b60405180868152602001806020018581526020018473ffffffffffffffffffffffffffffffffffffffff1673ffffffffffffffffffffffffffffffffffffffff168152602001838152602001828103825286818151815260200191508051906020019080838360005b838110156102035780820151818401526020810190506101e8565b50505050905090810190601f1680156102305780820380516001836020036101000a031916815260200191505b50965050505050505060405180910390f35b61026e6004803603602081101561025857600080fd5b8101908080359060200190929190505050610a93565b005b610278610b48565b6040518082815260200191505060405180910390f35b6102d0600480360360208110156102a457600080fd5b81019080803573ffffffffffffffffffffffffffffffffffffffff169060200190929190505050610b4e565b60405180868152602001806020018581526020018473ffffffffffffffffffffffffffffffffffffffff1673ffffffffffffffffffffffffffffffffffffffff168152602001838152602001828103825286818151815260200191508051906020019080838360005b83811015610354578082015181840152602081019050610339565b50505050905090810190601f1680156103815780820380516001836020036101000a031916815260200191505b50965050505050505060405180910390f35b6104ed600480360360608110156103a957600080fd5b81019080803590602001906401000000008111156103c657600080fd5b8201836020820111156103d857600080fd5b803590602001918460018302840111640100000000831117156103fa57600080fd5b91908080601f016020809104026020016040519081016040528093929190818152602001838380828437600081840152601f19601f8201169050808301925050505050505091929192908035906020019064010000000081111561045d57600080fd5b82018360208201111561046f57600080fd5b8035906020019184600183028401116401000000008311171561049157600080fd5b91908080601f016020809104026020016040519081016040528093929190818152602001838380828437600081840152601f19601f82011690508083019250505050505050919291929080359060200190929190505050610c3c565b005b61051b6004803603602081101561050557600080fd5b8101908080359060200190929190505050611270565b6040518088815260200180602001806020018781526020018681526020018573ffffffffffffffffffffffffffffffffffffffff1673ffffffffffffffffffffffffffffffffffffffff168152602001848152602001838103835289818151815260200191508051906020019080838360005b838110156105a957808201518184015260208101905061058e565b50505050905090810190601f1680156105d65780820380516001836020036101000a031916815260200191505b50838103825288818151815260200191508051906020019080838360005b8381101561060f5780820151818401526020810190506105f4565b50505050905090810190601f16801561063c5780820380516001836020036101000a031916815260200191505b50995050505050505050505060405180910390f35b61067d6004803603602081101561066757600080fd5b8101908080359060200190929190505050611402565b005b610687611897565b6040518082815260200191505060405180910390f35b600080815480929190600101919050555060606040518060c001604052806000548152602001838152602001600081526020013373ffffffffffffffffffffffffffffffffffffffff16815260200160008152602001828152506003600080548152602001908152602001600020600082015181600001556020820151816001019080519060200190610731929190611900565b506040820151816002015560608201518160030160006101000a81548173ffffffffffffffffffffffffffffffffffffffff021916908373ffffffffffffffffffffffffffffffffffffffff1602179055506080820151816004015560a08201518160050190805190602001906107a9929190611980565b509050506003600080548152602001908152602001600020600560003373ffffffffffffffffffffffffffffffffffffffff1673ffffffffffffffffffffffffffffffffffffffff16815260200190815260200160002060008201548160000155600182018160010190805460018160011615610100020316600290046108319291906119cd565b50600282015481600201556003820160009054906101000a900473ffffffffffffffffffffffffffffffffffffffff168160030160006101000a81548173ffffffffffffffffffffffffffffffffffffffff021916908373ffffffffffffffffffffffffffffffffffffffff1602179055506004820154816004015560058201816005019080546108c3929190611a54565b509050507f514af2a82370fd69109ef67206736f3880c4f9c15d2f2acd798b782ae37fdc5a600054833360405180848152602001806020018373ffffffffffffffffffffffffffffffffffffffff1673ffffffffffffffffffffffffffffffffffffffff168152602001828103825284818151815260200191508051906020019080838360005b8381101561096557808201518184015260208101905061094a565b50505050905090810190601f1680156109925780820380516001836020036101000a031916815260200191505b5094505050505060405180910390a15050565b6003602052806000526040600020600091509050806000015490806001018054600181600116156101000203166002900480601f016020809104026020016040519081016040528092919081815260200182805460018160011615610100020316600290048015610a575780601f10610a2c57610100808354040283529160200191610a57565b820191906000526020600020905b815481529060010190602001808311610a3a57829003601f168201915b5050505050908060020154908060030160009054906101000a900473ffffffffffffffffffffffffffffffffffffffff16908060040154905085565b60006004600083815260200190815260200160002090506000816006018190555060046000838152602001908152602001600020600080820160009055600182016000610ae09190611aa6565b600282016000610af09190611aa6565b600382016000905560048201600090556005820160006101000a81549073ffffffffffffffffffffffffffffffffffffffff021916905560068201600090555050600160008154809291906001900391905055505050565b60005481565b6005602052806000526040600020600091509050806000015490806001018054600181600116156101000203166002900480601f016020809104026020016040519081016040528092919081815260200182805460018160011615610100020316600290048015610c005780601f10610bd557610100808354040283529160200191610c00565b820191906000526020600020905b815481529060010190602001808311610be357829003601f168201915b5050505050908060020154908060030160009054906101000a900473ffffffffffffffffffffffffffffffffffffffff16908060040154905085565b6001600081548092919060010191905055506040518060e001604052806001548152602001848152602001838152602001828152602001600081526020013373ffffffffffffffffffffffffffffffffffffffff1681526020016001815250600460006001548152602001908152602001600020600082015181600001556020820151816001019080519060200190610cd6929190611900565b506040820151816002019080519060200190610cf3929190611900565b50606082015181600301556080820151816004015560a08201518160050160006101000a81548173ffffffffffffffffffffffffffffffffffffffff021916908373ffffffffffffffffffffffffffffffffffffffff16021790555060c08201518160060155905050610d64611aee565b600560003373ffffffffffffffffffffffffffffffffffffffff1673ffffffffffffffffffffffffffffffffffffffff1681526020019081526020016000206040518060c001604052908160008201548152602001600182018054600181600116156101000203166002900480601f016020809104026020016040519081016040528092919081815260200182805460018160011615610100020316600290048015610e515780601f10610e2657610100808354040283529160200191610e51565b820191906000526020600020905b815481529060010190602001808311610e3457829003601f168201915b50505050508152602001600282015481526020016003820160009054906101000a900473ffffffffffffffffffffffffffffffffffffffff1673ffffffffffffffffffffffffffffffffffffffff1673ffffffffffffffffffffffffffffffffffffffff1681526020016004820154815260200160058201805480602002602001604051908101604052809291908181526020018280548015610f1357602002820191906000526020600020905b815481526020019060010190808311610eff575b5050505050815250509050611109816004600060015481526020019081526020016000206040518060e001604052908160008201548152602001600182018054600181600116156101000203166002900480601f016020809104026020016040519081016040528092919081815260200182805460018160011615610100020316600290048015610fe55780601f10610fba57610100808354040283529160200191610fe5565b820191906000526020600020905b815481529060010190602001808311610fc857829003601f168201915b50505050508152602001600282018054600181600116156101000203166002900480601f0160208091040260200160405190810160405280929190818152602001828054600181600116156101000203166002900480156110875780601f1061105c57610100808354040283529160200191611087565b820191906000526020600020905b81548152906001019060200180831161106a57829003601f168201915b5050505050815260200160038201548152602001600482015481526020016005820160009054906101000a900473ffffffffffffffffffffffffffffffffffffffff1673ffffffffffffffffffffffffffffffffffffffff1673ffffffffffffffffffffffffffffffffffffffff16815260200160068201548152505061189d565b7fb4c33a6a401f72300c2d78746515217417479d3c3c941cb6981b287fc2b3f73b60015485858560003360016040518088815260200180602001806020018781526020018681526020018573ffffffffffffffffffffffffffffffffffffffff1673ffffffffffffffffffffffffffffffffffffffff168152602001848152602001838103835289818151815260200191508051906020019080838360005b838110156111c35780820151818401526020810190506111a8565b50505050905090810190601f1680156111f05780820380516001836020036101000a031916815260200191505b50838103825288818151815260200191508051906020019080838360005b8381101561122957808201518184015260208101905061120e565b50505050905090810190601f1680156112565780820380516001836020036101000a031916815260200191505b50995050505050505050505060405180910390a150505050565b6004602052806000526040600020600091509050806000015490806001018054600181600116156101000203166002900480601f0160208091040260200160405190810160405280929190818152602001828054600181600116156101000203166002900480156113225780601f106112f757610100808354040283529160200191611322565b820191906000526020600020905b81548152906001019060200180831161130557829003601f168201915b505050505090806002018054600181600116156101000203166002900480601f0160208091040260200160405190810160405280929190818152602001828054600181600116156101000203166002900480156113c05780601f10611395576101008083540402835291602001916113c0565b820191906000526020600020905b8154815290600101906020018083116113a357829003601f168201915b5050505050908060030154908060040154908060050160009054906101000a900473ffffffffffffffffffffffffffffffffffffffff16908060060154905087565b60008111801561141457506001548111155b61141d57600080fd5b611425611b3a565b600460008381526020019081526020016000206040518060e001604052908160008201548152602001600182018054600181600116156101000203166002900480601f0160208091040260200160405190810160405280929190818152602001828054600181600116156101000203166002900480156114e65780601f106114bb576101008083540402835291602001916114e6565b820191906000526020600020905b8154815290600101906020018083116114c957829003601f168201915b50505050508152602001600282018054600181600116156101000203166002900480601f0160208091040260200160405190810160405280929190818152602001828054600181600116156101000203166002900480156115885780601f1061155d57610100808354040283529160200191611588565b820191906000526020600020905b81548152906001019060200180831161156b57829003601f168201915b5050505050815260200160038201548152602001600482015481526020016005820160009054906101000a900473ffffffffffffffffffffffffffffffffffffffff1673ffffffffffffffffffffffffffffffffffffffff1673ffffffffffffffffffffffffffffffffffffffff168152602001600682015481525050905060008160a0015190508073ffffffffffffffffffffffffffffffffffffffff166108fc83606001519081150290604051600060405180830381858888f1935050505015801561165a573d6000803e3d6000fd5b508160800180518091906001018152505081600460008581526020019081526020016000206000820151816000015560208201518160010190805190602001906116a5929190611900565b5060408201518160020190805190602001906116c2929190611900565b50606082015181600301556080820151816004015560a08201518160050160006101000a81548173ffffffffffffffffffffffffffffffffffffffff021916908373ffffffffffffffffffffffffffffffffffffffff16021790555060c082015181600601559050507f4b478fe60c8315a3a592faa2f0d1dec44f3cdbb27316336c33a3fa4174a8d66d6001548360200151846040015185606001518660800151336040518087815260200180602001806020018681526020018581526020018473ffffffffffffffffffffffffffffffffffffffff1673ffffffffffffffffffffffffffffffffffffffff168152602001838103835288818151815260200191508051906020019080838360005b838110156117ec5780820151818401526020810190506117d1565b50505050905090810190601f1680156118195780820380516001836020036101000a031916815260200191505b50838103825287818151815260200191508051906020019080838360005b83811015611852578082015181840152602081019050611837565b50505050905090810190601f16801561187f5780820380516001836020036101000a031916815260200191505b509850505050505050505060405180910390a1505050565b60015481565b60008260800151905060036000846000015181526020019081526020016000206005018260000151908060018154018082558091505090600182039060005260206000200160009091929091909150555060018101836080018181525050505050565b828054600181600116156101000203166002900490600052602060002090601f016020900481019282601f1061194157805160ff191683800117855561196f565b8280016001018555821561196f579182015b8281111561196e578251825591602001919060010190611953565b5b50905061197c9190611b8d565b5090565b8280548282559060005260206000209081019282156119bc579160200282015b828111156119bb5782518255916020019190600101906119a0565b5b5090506119c99190611b8d565b5090565b828054600181600116156101000203166002900490600052602060002090601f016020900481019282601f10611a065780548555611a43565b82800160010185558215611a4357600052602060002091601f016020900482015b82811115611a42578254825591600101919060010190611a27565b5b509050611a509190611b8d565b5090565b828054828255906000526020600020908101928215611a955760005260206000209182015b82811115611a94578254825591600101919060010190611a79565b5b509050611aa29190611b8d565b5090565b50805460018160011615610100020316600290046000825580601f10611acc5750611aeb565b601f016020900490600052602060002090810190611aea9190611b8d565b5b50565b6040518060c00160405280600081526020016060815260200160008152602001600073ffffffffffffffffffffffffffffffffffffffff16815260200160008152602001606081525090565b6040518060e001604052806000815260200160608152602001606081526020016000815260200160008152602001600073ffffffffffffffffffffffffffffffffffffffff168152602001600081525090565b611baf91905b80821115611bab576000816000905550600101611b93565b5090565b9056fea265627a7a72315820851e8fae7072b294f21bcfbc593b7f3ef34c6c984d003f04f43fc413a732c08964736f6c63430005100032",
  "source": "pragma solidity ^0.5.0;\r\n\r\ncontract GiveNTake {\r\n  //string public name;\r\n  uint public usersCount = 0;\r\n  uint public cardsCount = 0;\r\n  uint card_amount = 0;\r\n  \r\n\r\n  struct User {\r\n    uint id;\r\n    string name;\r\n    uint rate;\r\n    address owner;\r\n    uint cardAmount;\r\n    uint[] mycards;\r\n  }\r\n\r\n  struct Card {\r\n        uint id;\r\n        string headline;\r\n        string content;\r\n        uint price;\r\n        uint soldCount;\r\n        address payable owner;\r\n        uint isActive;\r\n    }\r\n\r\n  event UserAdded(\r\n    uint id,\r\n    string name,\r\n    address owner\r\n  );\r\n\r\n  event CardCreated(\r\n        uint id,\r\n        string headline,\r\n        string content,\r\n        uint price,\r\n        uint soldCount,\r\n        address payable owner,\r\n        uint isActive\r\n    );\r\n\r\n  event CardBought(\r\n        uint id,\r\n        string headline,\r\n        string content,\r\n        uint price,\r\n        uint soldCount,\r\n        address payable owner\r\n    );\r\n\r\n  event UserRated(\r\n        uint id,\r\n        string name,\r\n        uint rate\r\n    );\r\n\r\n    mapping(uint => User) public users;\r\n    mapping(uint => Card) public cards;\r\n    mapping (address => User) public usersByAddress;\r\n\r\n  constructor() public {\r\n    //name = \"Decentragram\";\r\n  }\r\n\r\n  function addUser(string memory _name) public {\r\n    // Increment image id\r\n    usersCount ++;\r\n    uint[] memory my_cards;\r\n    users[usersCount] = User(usersCount, _name, 0, msg.sender,0, my_cards);\r\n    usersByAddress[msg.sender] = users[usersCount];\r\n\r\n    emit UserAdded(usersCount, _name, msg.sender);\r\n  }\r\n\r\n  function postOffer(string memory _headline, string memory _content, uint _price) public {\r\n        cardsCount ++;\r\n        cards[cardsCount] = Card(cardsCount, _headline, _content, _price, 0, msg.sender, 1);\r\n        User memory curr_user = usersByAddress[msg.sender];\r\n      \r\n        //add new card to user list\r\n        add_cardToUser(curr_user, cards[cardsCount]);\r\n\r\n        emit CardCreated(cardsCount, _headline, _content, _price, 0, msg.sender, 1);\r\n    }\r\n  function add_cardToUser(User memory currUser, Card memory currCard) private{\r\n        uint curr_amount = currUser.cardAmount;\r\n        //add card to user card list\r\n        users[currUser.id].mycards.push(currCard.id);\r\n        \r\n        //currUser.my_cards[curr_amount] = currCard;\r\n        currUser.cardAmount = curr_amount+1;\r\n    }\r\n  function buyOffer(uint _cardId) public {\r\n        require(_cardId > 0 && _cardId <= cardsCount);\r\n\r\n        Card memory _card = cards[_cardId];\r\n        address payable _owner = _card.owner;\r\n        \r\n        _owner.transfer(_card.price);\r\n        _card.soldCount ++;\r\n        cards[_cardId] = _card;     // update the card\r\n\r\n        emit CardBought(cardsCount, _card.headline, _card.content, _card.price, _card.soldCount, msg.sender);\r\n\r\n    }\r\n  function rateSeller(uint _sellerId) private {\r\n        require(_sellerId > 0 && _sellerId <= usersCount);\r\n      \r\n        // perhaps add that I can only rate a user once\r\n        User memory _user =  users[_sellerId];\r\n        _user.rate ++;\r\n        users[_sellerId] = _user;\r\n\r\n        emit UserRated(_sellerId, _user.name, _user.rate);\r\n    }\r\n  function deleteCard(uint id) public {\r\n      Card storage toDelete = cards[id];\r\n      toDelete.isActive = 0;\r\n\r\n       /* Card storage toDelete = cards[id];\r\n        require(toDelete.owner == msg.sender);\r\n        User memory card_owner = usersByAddress[toDelete.owner];\r\n        for(uint i = 1; i<card_owner.mycards.length; i++){\r\n          if(card_owner.mycards[i]==id){\r\n            for(uint j = i ; j<card_owner.mycards.length; j++){\r\n              card_owner.mycards[j] = card_owner.mycards[j+1];\r\n            }\r\n          }\r\n        }\r\n        //need to find card id in mycards array, delete it and move everything one to the left\r\n       /* for (uint i = card_owner.id; i<card_owner.mycards.length-1; i++){\r\n            card_owner.mycards[i] = card_owner.mycards[i+1];\r\n        }*/\r\n        //move all cards in cards array \r\n        /*for(uint i = cards[toDelete.id]; i <cards.length()-1; i++){\r\n            cards[i] = cards[i+1];\r\n        }*/\r\n        //delete card_owner.mycards[card_owner.mycards.length-1];\r\n      delete cards[id];\r\n      cardsCount--;\r\n  }    \r\n\r\n}",
  "sourcePath": "C:\\Users\\sahar\\unevirsity\\blockchain\\src\\contracts\\GiveNTake.sol",
  "compiler": {
    "name": "solc",
    "version": "0.5.16+commit.9c3226ce.Emscripten.clang"
  },
  "schemaVersion": "3.4.3",
  "updatedAt": "2021-12-11T15:46:46.702Z",
  "networkType": "ethereum",
  "devdoc": {
    "methods": {}
  },
  "userdoc": {
    "methods": {}
  }
}