{
  "contractName": "GiveNTake",
  "abi": [
    {
      "inputs": [],
      "payable": false,
      "stateMutability": "nonpayable",
      "type": "constructor"
    },
    {
      "anonymous": false,
      "inputs": [
        {
          "indexed": false,
          "internalType": "uint256",
          "name": "id",
          "type": "uint256"
        },
        {
          "indexed": false,
          "internalType": "string",
          "name": "headline",
          "type": "string"
        },
        {
          "indexed": false,
          "internalType": "string",
          "name": "content",
          "type": "string"
        },
        {
          "indexed": false,
          "internalType": "uint256",
          "name": "price",
          "type": "uint256"
        },
        {
          "indexed": false,
          "internalType": "uint256",
          "name": "soldCount",
          "type": "uint256"
        },
        {
          "indexed": false,
          "internalType": "address payable",
          "name": "owner",
          "type": "address"
        }
      ],
      "name": "CardBought",
      "type": "event"
    },
    {
      "anonymous": false,
      "inputs": [
        {
          "indexed": false,
          "internalType": "uint256",
          "name": "id",
          "type": "uint256"
        },
        {
          "indexed": false,
          "internalType": "string",
          "name": "headline",
          "type": "string"
        },
        {
          "indexed": false,
          "internalType": "string",
          "name": "content",
          "type": "string"
        },
        {
          "indexed": false,
          "internalType": "uint256",
          "name": "price",
          "type": "uint256"
        },
        {
          "indexed": false,
          "internalType": "uint256",
          "name": "soldCount",
          "type": "uint256"
        },
        {
          "indexed": false,
          "internalType": "address payable",
          "name": "owner",
          "type": "address"
        }
      ],
      "name": "CardCreated",
      "type": "event"
    },
    {
      "anonymous": false,
      "inputs": [
        {
          "indexed": false,
          "internalType": "uint256",
          "name": "id",
          "type": "uint256"
        },
        {
          "indexed": false,
          "internalType": "string",
          "name": "name",
          "type": "string"
        },
        {
          "indexed": false,
          "internalType": "uint256",
          "name": "rate",
          "type": "uint256"
        },
        {
          "indexed": false,
          "internalType": "uint256",
          "name": "soldCount",
          "type": "uint256"
        },
        {
          "indexed": false,
          "internalType": "uint256",
          "name": "cardAmount",
          "type": "uint256"
        },
        {
          "indexed": false,
          "internalType": "uint256[]",
          "name": "my_cards",
          "type": "uint256[]"
        }
      ],
      "name": "UserAdded",
      "type": "event"
    },
    {
      "anonymous": false,
      "inputs": [
        {
          "indexed": false,
          "internalType": "uint256",
          "name": "id",
          "type": "uint256"
        },
        {
          "indexed": false,
          "internalType": "string",
          "name": "name",
          "type": "string"
        },
        {
          "indexed": false,
          "internalType": "uint256",
          "name": "soldCount",
          "type": "uint256"
        },
        {
          "indexed": false,
          "internalType": "uint256",
          "name": "rate",
          "type": "uint256"
        }
      ],
      "name": "UserRated",
      "type": "event"
    },
    {
      "constant": true,
      "inputs": [
        {
          "internalType": "uint256",
          "name": "",
          "type": "uint256"
        }
      ],
      "name": "cards",
      "outputs": [
        {
          "internalType": "uint256",
          "name": "id",
          "type": "uint256"
        },
        {
          "internalType": "string",
          "name": "headline",
          "type": "string"
        },
        {
          "internalType": "string",
          "name": "content",
          "type": "string"
        },
        {
          "internalType": "uint256",
          "name": "price",
          "type": "uint256"
        },
        {
          "internalType": "uint256",
          "name": "soldCount",
          "type": "uint256"
        },
        {
          "internalType": "address payable",
          "name": "owner",
          "type": "address"
        }
      ],
      "payable": false,
      "stateMutability": "view",
      "type": "function"
    },
    {
      "constant": true,
      "inputs": [],
      "name": "cardsCount",
      "outputs": [
        {
          "internalType": "uint256",
          "name": "",
          "type": "uint256"
        }
      ],
      "payable": false,
      "stateMutability": "view",
      "type": "function"
    },
    {
      "constant": true,
      "inputs": [
        {
          "internalType": "uint256",
          "name": "",
          "type": "uint256"
        }
      ],
      "name": "users",
      "outputs": [
        {
          "internalType": "uint256",
          "name": "id",
          "type": "uint256"
        },
        {
          "internalType": "string",
          "name": "name",
          "type": "string"
        },
        {
          "internalType": "uint256",
          "name": "rate",
          "type": "uint256"
        },
        {
          "internalType": "uint256",
          "name": "soldCount",
          "type": "uint256"
        },
        {
          "internalType": "uint256",
          "name": "cardAmount",
          "type": "uint256"
        }
      ],
      "payable": false,
      "stateMutability": "view",
      "type": "function"
    },
    {
      "constant": true,
      "inputs": [
        {
          "internalType": "address",
          "name": "",
          "type": "address"
        }
      ],
      "name": "usersByAddress",
      "outputs": [
        {
          "internalType": "uint256",
          "name": "id",
          "type": "uint256"
        },
        {
          "internalType": "string",
          "name": "name",
          "type": "string"
        },
        {
          "internalType": "uint256",
          "name": "rate",
          "type": "uint256"
        },
        {
          "internalType": "uint256",
          "name": "soldCount",
          "type": "uint256"
        },
        {
          "internalType": "uint256",
          "name": "cardAmount",
          "type": "uint256"
        }
      ],
      "payable": false,
      "stateMutability": "view",
      "type": "function"
    },
    {
      "constant": true,
      "inputs": [],
      "name": "usersCount",
      "outputs": [
        {
          "internalType": "uint256",
          "name": "",
          "type": "uint256"
        }
      ],
      "payable": false,
      "stateMutability": "view",
      "type": "function"
    },
    {
      "constant": false,
      "inputs": [
        {
          "internalType": "string",
          "name": "_name",
          "type": "string"
        }
      ],
      "name": "addUSer",
      "outputs": [],
      "payable": false,
      "stateMutability": "nonpayable",
      "type": "function"
    },
    {
      "constant": false,
      "inputs": [
        {
          "internalType": "string",
          "name": "_headline",
          "type": "string"
        },
        {
          "internalType": "string",
          "name": "_content",
          "type": "string"
        },
        {
          "internalType": "uint256",
          "name": "_price",
          "type": "uint256"
        }
      ],
      "name": "postOffer",
      "outputs": [],
      "payable": false,
      "stateMutability": "nonpayable",
      "type": "function"
    },
    {
      "constant": true,
      "inputs": [
        {
          "components": [
            {
              "internalType": "uint256",
              "name": "id",
              "type": "uint256"
            },
            {
              "internalType": "string",
              "name": "name",
              "type": "string"
            },
            {
              "internalType": "uint256",
              "name": "rate",
              "type": "uint256"
            },
            {
              "internalType": "uint256",
              "name": "soldCount",
              "type": "uint256"
            },
            {
              "internalType": "uint256",
              "name": "cardAmount",
              "type": "uint256"
            },
            {
              "internalType": "uint256[]",
              "name": "my_cards",
              "type": "uint256[]"
            }
          ],
          "internalType": "struct GiveNTake.User",
          "name": "currUser",
          "type": "tuple"
        },
        {
          "components": [
            {
              "internalType": "uint256",
              "name": "id",
              "type": "uint256"
            },
            {
              "internalType": "string",
              "name": "headline",
              "type": "string"
            },
            {
              "internalType": "string",
              "name": "content",
              "type": "string"
            },
            {
              "internalType": "uint256",
              "name": "price",
              "type": "uint256"
            },
            {
              "internalType": "uint256",
              "name": "soldCount",
              "type": "uint256"
            },
            {
              "internalType": "address payable",
              "name": "owner",
              "type": "address"
            }
          ],
          "internalType": "struct GiveNTake.Card",
          "name": "currCard",
          "type": "tuple"
        }
      ],
      "name": "add_cardToUser",
      "outputs": [],
      "payable": false,
      "stateMutability": "pure",
      "type": "function"
    },
    {
      "constant": false,
      "inputs": [
        {
          "internalType": "uint256",
          "name": "_cardId",
          "type": "uint256"
        }
      ],
      "name": "buyOffer",
      "outputs": [],
      "payable": false,
      "stateMutability": "nonpayable",
      "type": "function"
    }
  ],
  "bytecode": "0x60806040523480156200001157600080fd5b50620000586040518060400160405280600581526020017f5361686172000000000000000000000000000000000000000000000000000000815250620000a460201b60201c565b6200009e6040518060400160405280600581526020017f597576616c000000000000000000000000000000000000000000000000000000815250620000a460201b60201c565b620004e0565b60036000815480929190600101919050555060606040518060c00160405280600354815260200183815260200160008152602001600081526020016000815260200182815250600080600354815260200190815260200160002060008201518160000155602082015181600101908051906020019062000126929190620001b2565b5060408201518160020155606082015181600301556080820151816004015560a08201518160050190805190602001906200016392919062000239565b509050507fff7943d1524c463c292bf59dcc7ad97e02105c3a5bd9fb243b155f42d58d008060035483600080600086604051620001a696959493929190620003ab565b60405180910390a15050565b828054600181600116156101000203166002900490600052602060002090601f016020900481019282601f10620001f557805160ff191683800117855562000226565b8280016001018555821562000226579182015b828111156200022557825182559160200191906001019062000208565b5b5090506200023591906200028b565b5090565b82805482825590600052602060002090810192821562000278579160200282015b82811115620002775782518255916020019190600101906200025a565b5b5090506200028791906200028b565b5090565b620002b091905b80821115620002ac57600081600090555060010162000292565b5090565b90565b6000620002c1838362000389565b60208301905092915050565b6000620002da8262000436565b620002e6818562000459565b9350620002f38362000426565b8060005b838110156200032a5781516200030e8882620002b3565b97506200031b836200044c565b925050600181019050620002f7565b5085935050505092915050565b620003428162000485565b82525050565b6000620003558262000441565b6200036181856200046a565b93506200037381856020860162000499565b6200037e81620004cf565b840191505092915050565b62000394816200047b565b82525050565b620003a5816200047b565b82525050565b600060c082019050620003c260008301896200039a565b8181036020830152620003d6818862000348565b9050620003e7604083018762000337565b620003f6606083018662000337565b62000405608083018562000337565b81810360a0830152620004198184620002cd565b9050979650505050505050565b6000819050602082019050919050565b600081519050919050565b600081519050919050565b6000602082019050919050565b600082825260208201905092915050565b600082825260208201905092915050565b6000819050919050565b600062000492826200047b565b9050919050565b60005b83811015620004b95780820151818401526020810190506200049c565b83811115620004c9576000848401525b50505050565b6000601f19601f8301169050919050565b61199880620004f06000396000f3fe608060405234801561001057600080fd5b50600436106100935760003560e01c80636bf693c4116100665780636bf693c4146101225780637f1d08cc146101565780638dc10768146101725780639ecce700146101a7578063bd6c6756146101c357610093565b80631a81e00a14610098578063365b98b2146100b45780634bc42f7a146100e85780636ba13a8214610104575b600080fd5b6100b260048036036100ad91908101906113d5565b6101e1565b005b6100ce60048036036100c99190810190611441565b61021d565b6040516100df9594939291906116f6565b60405180910390f35b61010260048036036100fd9190810190611315565b6102eb565b005b61010c6103f3565b604051610119919061158e565b60405180910390f35b61013c600480360361013791908101906112ec565b6103f9565b60405161014d9594939291906116f6565b60405180910390f35b610170600480360361016b9190810190611356565b6104c7565b005b61018c60048036036101879190810190611441565b610977565b60405161019e96959493929190611687565b60405180910390f35b6101c160048036036101bc9190810190611441565b610b03565b005b6101cb610e70565b6040516101d8919061158e565b60405180910390f35b60008260800151905081600001518360a0015182815181106101ff57fe5b60200260200101818152505060018101836080018181525050505050565b6000602052806000526040600020600091509050806000015490806001018054600181600116156101000203166002900480601f0160208091040260200160405190810160405280929190818152602001828054600181600116156101000203166002900480156102cf5780601f106102a4576101008083540402835291602001916102cf565b820191906000526020600020905b8154815290600101906020018083116102b257829003601f168201915b5050505050908060020154908060030154908060040154905085565b60036000815480929190600101919050555060606040518060c00160405280600354815260200183815260200160008152602001600081526020016000815260200182815250600080600354815260200190815260200160002060008201518160000155602082015181600101908051906020019061036b929190610e76565b5060408201518160020155606082015181600301556080820151816004015560a08201518160050190805190602001906103a6929190610ef6565b509050507fff7943d1524c463c292bf59dcc7ad97e02105c3a5bd9fb243b155f42d58d0080600354836000806000866040516103e7969594939291906115a9565b60405180910390a15050565b60035481565b6002602052806000526040600020600091509050806000015490806001018054600181600116156101000203166002900480601f0160208091040260200160405190810160405280929190818152602001828054600181600116156101000203166002900480156104ab5780601f10610480576101008083540402835291602001916104ab565b820191906000526020600020905b81548152906001019060200180831161048e57829003601f168201915b5050505050908060020154908060030154908060040154905085565b6004600081548092919060010191905055506040518060c001604052806004548152602001848152602001838152602001828152602001600081526020013373ffffffffffffffffffffffffffffffffffffffff1681525060016000600454815260200190815260200160002060008201518160000155602082015181600101908051906020019061055a929190610e76565b506040820151816002019080519060200190610577929190610e76565b50606082015181600301556080820151816004015560a08201518160050160006101000a81548173ffffffffffffffffffffffffffffffffffffffff021916908373ffffffffffffffffffffffffffffffffffffffff1602179055509050506105de610f43565b600260003373ffffffffffffffffffffffffffffffffffffffff1673ffffffffffffffffffffffffffffffffffffffff1681526020019081526020016000206040518060c001604052908160008201548152602001600182018054600181600116156101000203166002900480601f0160208091040260200160405190810160405280929190818152602001828054600181600116156101000203166002900480156106cb5780601f106106a0576101008083540402835291602001916106cb565b820191906000526020600020905b8154815290600101906020018083116106ae57829003601f168201915b505050505081526020016002820154815260200160038201548152602001600482015481526020016005820180548060200260200160405190810160405280929190818152602001828054801561074157602002820191906000526020600020905b81548152602001906001019080831161072d575b505050505081525050905061092d816001600060045481526020019081526020016000206040518060c001604052908160008201548152602001600182018054600181600116156101000203166002900480601f0160208091040260200160405190810160405280929190818152602001828054600181600116156101000203166002900480156108135780601f106107e857610100808354040283529160200191610813565b820191906000526020600020905b8154815290600101906020018083116107f657829003601f168201915b50505050508152602001600282018054600181600116156101000203166002900480601f0160208091040260200160405190810160405280929190818152602001828054600181600116156101000203166002900480156108b55780601f1061088a576101008083540402835291602001916108b5565b820191906000526020600020905b81548152906001019060200180831161089857829003601f168201915b5050505050815260200160038201548152602001600482015481526020016005820160009054906101000a900473ffffffffffffffffffffffffffffffffffffffff1673ffffffffffffffffffffffffffffffffffffffff1673ffffffffffffffffffffffffffffffffffffffff16815250506101e1565b7f368075e2a014a8811fdb3d8783e7d02d35d94b9801126586be8677c4c00f07c460045485858560003360405161096996959493929190611618565b60405180910390a150505050565b6001602052806000526040600020600091509050806000015490806001018054600181600116156101000203166002900480601f016020809104026020016040519081016040528092919081815260200182805460018160011615610100020316600290048015610a295780601f106109fe57610100808354040283529160200191610a29565b820191906000526020600020905b815481529060010190602001808311610a0c57829003601f168201915b505050505090806002018054600181600116156101000203166002900480601f016020809104026020016040519081016040528092919081815260200182805460018160011615610100020316600290048015610ac75780601f10610a9c57610100808354040283529160200191610ac7565b820191906000526020600020905b815481529060010190602001808311610aaa57829003601f168201915b5050505050908060030154908060040154908060050160009054906101000a900473ffffffffffffffffffffffffffffffffffffffff16905086565b600081118015610b1557506004548111155b610b1e57600080fd5b610b26610f79565b600160008381526020019081526020016000206040518060c001604052908160008201548152602001600182018054600181600116156101000203166002900480601f016020809104026020016040519081016040528092919081815260200182805460018160011615610100020316600290048015610be75780601f10610bbc57610100808354040283529160200191610be7565b820191906000526020600020905b815481529060010190602001808311610bca57829003601f168201915b50505050508152602001600282018054600181600116156101000203166002900480601f016020809104026020016040519081016040528092919081815260200182805460018160011615610100020316600290048015610c895780601f10610c5e57610100808354040283529160200191610c89565b820191906000526020600020905b815481529060010190602001808311610c6c57829003601f168201915b5050505050815260200160038201548152602001600482015481526020016005820160009054906101000a900473ffffffffffffffffffffffffffffffffffffffff1673ffffffffffffffffffffffffffffffffffffffff1673ffffffffffffffffffffffffffffffffffffffff1681525050905060008160a0015190508073ffffffffffffffffffffffffffffffffffffffff166108fc83606001519081150290604051600060405180830381858888f19350505050158015610d51573d6000803e3d6000fd5b50816080018051809190600101815250508160016000858152602001908152602001600020600082015181600001556020820151816001019080519060200190610d9c929190610e76565b506040820151816002019080519060200190610db9929190610e76565b50606082015181600301556080820151816004015560a08201518160050160006101000a81548173ffffffffffffffffffffffffffffffffffffffff021916908373ffffffffffffffffffffffffffffffffffffffff1602179055509050507f4b478fe60c8315a3a592faa2f0d1dec44f3cdbb27316336c33a3fa4174a8d66d600454836020015184604001518560600151866080015133604051610e6396959493929190611687565b60405180910390a1505050565b60045481565b828054600181600116156101000203166002900490600052602060002090601f016020900481019282601f10610eb757805160ff1916838001178555610ee5565b82800160010185558215610ee5579182015b82811115610ee4578251825591602001919060010190610ec9565b5b509050610ef29190610fc5565b5090565b828054828255906000526020600020908101928215610f32579160200282015b82811115610f31578251825591602001919060010190610f16565b5b509050610f3f9190610fc5565b5090565b6040518060c001604052806000815260200160608152602001600081526020016000815260200160008152602001606081525090565b6040518060c001604052806000815260200160608152602001606081526020016000815260200160008152602001600073ffffffffffffffffffffffffffffffffffffffff1681525090565b610fe791905b80821115610fe3576000816000905550600101610fcb565b5090565b90565b600081359050610ff981611910565b92915050565b60008135905061100e81611927565b92915050565b600082601f83011261102557600080fd5b81356110386110338261177d565b611750565b9150818183526020840193506020810190508385602084028201111561105d57600080fd5b60005b8381101561108d578161107388826112d7565b845260208401935060208301925050600181019050611060565b5050505092915050565b600082601f8301126110a857600080fd5b81356110bb6110b6826117a5565b611750565b915080825260208301602083018583830111156110d757600080fd5b6110e28382846118bd565b50505092915050565b600082601f8301126110fc57600080fd5b813561110f61110a826117d1565b611750565b9150808252602083016020830185838301111561112b57600080fd5b6111368382846118bd565b50505092915050565b600060c0828403121561115157600080fd5b61115b60c0611750565b9050600061116b848285016112d7565b600083015250602082013567ffffffffffffffff81111561118b57600080fd5b61119784828501611097565b602083015250604082013567ffffffffffffffff8111156111b757600080fd5b6111c384828501611097565b60408301525060606111d7848285016112d7565b60608301525060806111eb848285016112d7565b60808301525060a06111ff84828501610fff565b60a08301525092915050565b600060c0828403121561121d57600080fd5b61122760c0611750565b90506000611237848285016112d7565b600083015250602082013567ffffffffffffffff81111561125757600080fd5b61126384828501611097565b6020830152506040611277848285016112d7565b604083015250606061128b848285016112d7565b606083015250608061129f848285016112d7565b60808301525060a082013567ffffffffffffffff8111156112bf57600080fd5b6112cb84828501611014565b60a08301525092915050565b6000813590506112e68161193e565b92915050565b6000602082840312156112fe57600080fd5b600061130c84828501610fea565b91505092915050565b60006020828403121561132757600080fd5b600082013567ffffffffffffffff81111561134157600080fd5b61134d848285016110eb565b91505092915050565b60008060006060848603121561136b57600080fd5b600084013567ffffffffffffffff81111561138557600080fd5b611391868287016110eb565b935050602084013567ffffffffffffffff8111156113ae57600080fd5b6113ba868287016110eb565b92505060406113cb868287016112d7565b9150509250925092565b600080604083850312156113e857600080fd5b600083013567ffffffffffffffff81111561140257600080fd5b61140e8582860161120b565b925050602083013567ffffffffffffffff81111561142b57600080fd5b6114378582860161113f565b9150509250929050565b60006020828403121561145357600080fd5b6000611461848285016112d7565b91505092915050565b60006114768383611570565b60208301905092915050565b61148b8161186f565b82525050565b600061149c8261180d565b6114a6818561183b565b93506114b1836117fd565b8060005b838110156114e25781516114c9888261146a565b97506114d48361182e565b9250506001810190506114b5565b5085935050505092915050565b6114f8816118ab565b82525050565b600061150982611823565b611513818561184c565b93506115238185602086016118cc565b61152c816118ff565b840191505092915050565b600061154282611818565b61154c818561184c565b935061155c8185602086016118cc565b611565816118ff565b840191505092915050565b611579816118a1565b82525050565b611588816118a1565b82525050565b60006020820190506115a3600083018461157f565b92915050565b600060c0820190506115be600083018961157f565b81810360208301526115d081886114fe565b90506115df60408301876114ef565b6115ec60608301866114ef565b6115f960808301856114ef565b81810360a083015261160b8184611491565b9050979650505050505050565b600060c08201905061162d600083018961157f565b818103602083015261163f81886114fe565b9050818103604083015261165381876114fe565b9050611662606083018661157f565b61166f60808301856114ef565b61167c60a0830184611482565b979650505050505050565b600060c08201905061169c600083018961157f565b81810360208301526116ae8188611537565b905081810360408301526116c28187611537565b90506116d1606083018661157f565b6116de608083018561157f565b6116eb60a0830184611482565b979650505050505050565b600060a08201905061170b600083018861157f565b818103602083015261171d8187611537565b905061172c604083018661157f565b611739606083018561157f565b611746608083018461157f565b9695505050505050565b6000604051905081810181811067ffffffffffffffff8211171561177357600080fd5b8060405250919050565b600067ffffffffffffffff82111561179457600080fd5b602082029050602081019050919050565b600067ffffffffffffffff8211156117bc57600080fd5b601f19601f8301169050602081019050919050565b600067ffffffffffffffff8211156117e857600080fd5b601f19601f8301169050602081019050919050565b6000819050602082019050919050565b600081519050919050565b600081519050919050565b600081519050919050565b6000602082019050919050565b600082825260208201905092915050565b600082825260208201905092915050565b600061186882611881565b9050919050565b600061187a82611881565b9050919050565b600073ffffffffffffffffffffffffffffffffffffffff82169050919050565b6000819050919050565b60006118b6826118a1565b9050919050565b82818337600083830152505050565b60005b838110156118ea5780820151818401526020810190506118cf565b838111156118f9576000848401525b50505050565b6000601f19601f8301169050919050565b6119198161185d565b811461192457600080fd5b50565b6119308161186f565b811461193b57600080fd5b50565b611947816118a1565b811461195257600080fd5b5056fea365627a7a7231582008c7d41a4a4107ad2c7e538558b54166a2511e1a7384cc9b7d5d61abb5d6f58d6c6578706572696d656e74616cf564736f6c63430005100040",
  "source": "// SPDX-License-Identifier: MIT\r\npragma solidity ^0.5.0;\r\npragma experimental ABIEncoderV2;\r\n\r\ncontract GiveNTake {\r\n    \r\n    struct User {\r\n        uint id;\r\n        string name;\r\n        uint rate; \r\n        uint soldCount;\r\n        uint cardAmount;\r\n        //need to add with push - make sure that the delete covers this \r\n        uint[] my_cards;\r\n        \r\n    }\r\n\r\n    struct Card {\r\n        uint id;\r\n        string headline;\r\n        string content;\r\n        uint price;\r\n        uint soldCount;\r\n        address payable owner;\r\n    }\r\n\r\n    // key, value dictionary \r\n    mapping(uint => User) public users;\r\n    mapping(uint => Card) public cards;\r\n    mapping (address => User) public usersByAddress;\r\n    \r\n    // TODO: Add middle man --> buyer offers (and pays) ether. if seller approves, then approve(cardId) is executed. \r\n    //      Else, it is declined and ehter is returned.\r\n\r\n    uint public usersCount;\r\n    uint public cardsCount;\r\n    \r\n    event UserAdded(\r\n        uint id,\r\n        string name,\r\n        uint rate,\r\n        uint soldCount,\r\n        uint cardAmount,\r\n        uint[] my_cards\r\n    );\r\n    \r\n    event CardCreated(\r\n        uint id,\r\n        string headline,\r\n        string content,\r\n        uint price,\r\n        uint soldCount,\r\n        address payable owner\r\n    );\r\n\r\n    event CardBought(\r\n        uint id,\r\n        string headline,\r\n        string content,\r\n        uint price,\r\n        uint soldCount,\r\n        address payable owner\r\n    );\r\n\r\n    event UserRated(\r\n        uint id,\r\n        string name,\r\n        uint soldCount,\r\n        uint rate\r\n    );\r\n\r\n   constructor() public {\r\n     addUSer(\"Sahar\");\r\n     addUSer(\"Yuval\");\r\n    }\r\n\r\n    function addUSer (string memory _name) public {\r\n        usersCount ++;\r\n        //Card [] storage userCards;\r\n        uint[] memory my_cards;\r\n        users[usersCount] = User(usersCount, _name,0,0,0,my_cards);\r\n        //when adding a new user, they dont have any cards yet\r\n        emit UserAdded(usersCount, _name,0,0,0,my_cards);\r\n    }\r\n \r\n    function postOffer(string memory _headline, string memory _content, uint _price) public {\r\n        cardsCount ++;\r\n        cards[cardsCount] = Card(cardsCount, _headline, _content, _price, 0, msg.sender);\r\n        User memory curr_user = usersByAddress[msg.sender];\r\n        //add new card to user list\r\n        add_cardToUser(curr_user, cards[cardsCount]);\r\n\r\n        emit CardCreated(cardsCount, _headline, _content, _price, 0, msg.sender);\r\n    }\r\n\r\n    function add_cardToUser(User memory currUser, Card memory currCard) public pure{\r\n        uint curr_amount = currUser.cardAmount;\r\n        //add card to user card list\r\n        currUser.my_cards[curr_amount] = currCard.id;\r\n        currUser.cardAmount = curr_amount+1;\r\n    }\r\n\r\n    function buyOffer(uint _cardId) public {\r\n        require(_cardId > 0 && _cardId <= cardsCount);\r\n\r\n        Card memory _card = cards[_cardId];\r\n        address payable _owner = _card.owner;\r\n        \r\n        _owner.transfer(_card.price);   // change to valid currency before transfer - not to mention type number, not string\r\n        _card.soldCount ++;\r\n        cards[_cardId] = _card;     // update the card\r\n\r\n        emit CardBought(cardsCount, _card.headline, _card.content, _card.price, _card.soldCount, msg.sender);\r\n\r\n    }\r\n\r\n    function rateSeller(uint _sellerId) private {\r\n        require(_sellerId > 0 && _sellerId <= usersCount);\r\n      \r\n        // perhaps add that I can only rate a user once\r\n        User memory _user =  users[_sellerId];\r\n        _user.rate ++;\r\n        users[_sellerId] = _user;\r\n\r\n\r\n        emit UserRated(_sellerId, _user.name, _user.rate, _user.soldCount);\r\n    }\r\n\r\n    function deleteCard(Card memory toDelete) private{\r\n        require(toDelete.owner == msg.sender);\r\n        User memory card_owner = usersByAddress[toDelete.owner];\r\n        //move all cards in user card array\r\n        for (uint i = card_owner.id; i<card_owner.my_cards.length-1; i++){\r\n            card_owner.my_cards[i] = card_owner.my_cards[i+1];\r\n        }\r\n        //move all cards in cards array \r\n        /*for(uint i = cards[toDelete.id]; i <cards.length-1; i++){\r\n            cards[i] = cards[i+1];\r\n        }*/\r\n        delete card_owner.my_cards[card_owner.my_cards.length-1];\r\n        delete cards[toDelete.id];\r\n    }\r\n}",
  "sourcePath": "C:\\Users\\sahar\\unevirsity\\blockchain\\src\\contracts\\GiveNTake.sol",
  "compiler": {
    "name": "solc",
    "version": "0.5.16+commit.9c3226ce.Emscripten.clang"
  },
  "schemaVersion": "3.4.3",
  "updatedAt": "2021-12-09T20:06:44.245Z",
  "networkType": "ethereum",
  "devdoc": {
    "methods": {}
  },
  "userdoc": {
    "methods": {}
  }
}