{
  "contractName": "GiveNTake",
  "abi": [
    {
      "inputs": [],
      "payable": false,
      "stateMutability": "nonpayable",
      "type": "constructor"
    },
    {
      "anonymous": false,
      "inputs": [
        {
          "indexed": false,
          "internalType": "uint256",
          "name": "id",
          "type": "uint256"
        },
        {
          "indexed": false,
          "internalType": "string",
          "name": "headline",
          "type": "string"
        },
        {
          "indexed": false,
          "internalType": "string",
          "name": "content",
          "type": "string"
        },
        {
          "indexed": false,
          "internalType": "uint256",
          "name": "price",
          "type": "uint256"
        },
        {
          "indexed": false,
          "internalType": "uint256",
          "name": "soldCount",
          "type": "uint256"
        },
        {
          "indexed": false,
          "internalType": "address payable",
          "name": "owner",
          "type": "address"
        }
      ],
      "name": "CardBought",
      "type": "event"
    },
    {
      "anonymous": false,
      "inputs": [
        {
          "indexed": false,
          "internalType": "uint256",
          "name": "id",
          "type": "uint256"
        },
        {
          "indexed": false,
          "internalType": "string",
          "name": "headline",
          "type": "string"
        },
        {
          "indexed": false,
          "internalType": "string",
          "name": "content",
          "type": "string"
        },
        {
          "indexed": false,
          "internalType": "uint256",
          "name": "price",
          "type": "uint256"
        },
        {
          "indexed": false,
          "internalType": "uint256",
          "name": "soldCount",
          "type": "uint256"
        },
        {
          "indexed": false,
          "internalType": "address payable",
          "name": "owner",
          "type": "address"
        },
        {
          "indexed": false,
          "internalType": "uint256",
          "name": "isActive",
          "type": "uint256"
        }
      ],
      "name": "CardCreated",
      "type": "event"
    },
    {
      "anonymous": false,
      "inputs": [
        {
          "indexed": false,
          "internalType": "uint256",
          "name": "id",
          "type": "uint256"
        },
        {
          "indexed": false,
          "internalType": "string",
          "name": "name",
          "type": "string"
        },
        {
          "indexed": false,
          "internalType": "address",
          "name": "owner",
          "type": "address"
        }
      ],
      "name": "UserAdded",
      "type": "event"
    },
    {
      "anonymous": false,
      "inputs": [
        {
          "indexed": false,
          "internalType": "address",
          "name": "userAddress",
          "type": "address"
        },
        {
          "indexed": false,
          "internalType": "string",
          "name": "name",
          "type": "string"
        },
        {
          "indexed": false,
          "internalType": "uint256",
          "name": "rate",
          "type": "uint256"
        }
      ],
      "name": "UserRated",
      "type": "event"
    },
    {
      "constant": true,
      "inputs": [
        {
          "internalType": "uint256",
          "name": "",
          "type": "uint256"
        }
      ],
      "name": "cards",
      "outputs": [
        {
          "internalType": "uint256",
          "name": "id",
          "type": "uint256"
        },
        {
          "internalType": "string",
          "name": "headline",
          "type": "string"
        },
        {
          "internalType": "string",
          "name": "content",
          "type": "string"
        },
        {
          "internalType": "uint256",
          "name": "price",
          "type": "uint256"
        },
        {
          "internalType": "uint256",
          "name": "soldCount",
          "type": "uint256"
        },
        {
          "internalType": "address payable",
          "name": "owner",
          "type": "address"
        },
        {
          "internalType": "uint256",
          "name": "ownerRate",
          "type": "uint256"
        },
        {
          "internalType": "uint256",
          "name": "isActive",
          "type": "uint256"
        }
      ],
      "payable": false,
      "stateMutability": "view",
      "type": "function"
    },
    {
      "constant": true,
      "inputs": [],
      "name": "cardsCount",
      "outputs": [
        {
          "internalType": "uint256",
          "name": "",
          "type": "uint256"
        }
      ],
      "payable": false,
      "stateMutability": "view",
      "type": "function"
    },
    {
      "constant": true,
      "inputs": [
        {
          "internalType": "uint256",
          "name": "",
          "type": "uint256"
        }
      ],
      "name": "users",
      "outputs": [
        {
          "internalType": "uint256",
          "name": "id",
          "type": "uint256"
        },
        {
          "internalType": "string",
          "name": "name",
          "type": "string"
        },
        {
          "internalType": "uint256",
          "name": "rate",
          "type": "uint256"
        },
        {
          "internalType": "address",
          "name": "owner",
          "type": "address"
        },
        {
          "internalType": "uint256",
          "name": "cardAmount",
          "type": "uint256"
        },
        {
          "internalType": "uint256",
          "name": "ratingCount",
          "type": "uint256"
        }
      ],
      "payable": false,
      "stateMutability": "view",
      "type": "function"
    },
    {
      "constant": true,
      "inputs": [
        {
          "internalType": "address",
          "name": "",
          "type": "address"
        }
      ],
      "name": "usersByAddress",
      "outputs": [
        {
          "internalType": "uint256",
          "name": "id",
          "type": "uint256"
        },
        {
          "internalType": "string",
          "name": "name",
          "type": "string"
        },
        {
          "internalType": "uint256",
          "name": "rate",
          "type": "uint256"
        },
        {
          "internalType": "address",
          "name": "owner",
          "type": "address"
        },
        {
          "internalType": "uint256",
          "name": "cardAmount",
          "type": "uint256"
        },
        {
          "internalType": "uint256",
          "name": "ratingCount",
          "type": "uint256"
        }
      ],
      "payable": false,
      "stateMutability": "view",
      "type": "function"
    },
    {
      "constant": true,
      "inputs": [],
      "name": "usersCount",
      "outputs": [
        {
          "internalType": "uint256",
          "name": "",
          "type": "uint256"
        }
      ],
      "payable": false,
      "stateMutability": "view",
      "type": "function"
    },
    {
      "constant": false,
      "inputs": [
        {
          "internalType": "string",
          "name": "_name",
          "type": "string"
        }
      ],
      "name": "addUser",
      "outputs": [],
      "payable": false,
      "stateMutability": "nonpayable",
      "type": "function"
    },
    {
      "constant": false,
      "inputs": [
        {
          "internalType": "string",
          "name": "_headline",
          "type": "string"
        },
        {
          "internalType": "string",
          "name": "_content",
          "type": "string"
        },
        {
          "internalType": "uint256",
          "name": "_price",
          "type": "uint256"
        }
      ],
      "name": "postOffer",
      "outputs": [],
      "payable": false,
      "stateMutability": "nonpayable",
      "type": "function"
    },
    {
      "constant": false,
      "inputs": [
        {
          "components": [
            {
              "internalType": "uint256",
              "name": "id",
              "type": "uint256"
            },
            {
              "internalType": "string",
              "name": "name",
              "type": "string"
            },
            {
              "internalType": "uint256",
              "name": "rate",
              "type": "uint256"
            },
            {
              "internalType": "address",
              "name": "owner",
              "type": "address"
            },
            {
              "internalType": "uint256",
              "name": "cardAmount",
              "type": "uint256"
            },
            {
              "internalType": "uint256[]",
              "name": "mycards",
              "type": "uint256[]"
            },
            {
              "internalType": "uint256",
              "name": "ratingCount",
              "type": "uint256"
            }
          ],
          "internalType": "struct GiveNTake.User",
          "name": "currUser",
          "type": "tuple"
        },
        {
          "components": [
            {
              "internalType": "uint256",
              "name": "id",
              "type": "uint256"
            },
            {
              "internalType": "string",
              "name": "headline",
              "type": "string"
            },
            {
              "internalType": "string",
              "name": "content",
              "type": "string"
            },
            {
              "internalType": "uint256",
              "name": "price",
              "type": "uint256"
            },
            {
              "internalType": "uint256",
              "name": "soldCount",
              "type": "uint256"
            },
            {
              "internalType": "address payable",
              "name": "owner",
              "type": "address"
            },
            {
              "internalType": "uint256",
              "name": "ownerRate",
              "type": "uint256"
            },
            {
              "internalType": "uint256",
              "name": "isActive",
              "type": "uint256"
            }
          ],
          "internalType": "struct GiveNTake.Card",
          "name": "currCard",
          "type": "tuple"
        }
      ],
      "name": "add_cardToUser",
      "outputs": [],
      "payable": false,
      "stateMutability": "nonpayable",
      "type": "function"
    },
    {
      "constant": false,
      "inputs": [
        {
          "internalType": "uint256",
          "name": "_cardId",
          "type": "uint256"
        }
      ],
      "name": "buyOffer",
      "outputs": [],
      "payable": true,
      "stateMutability": "payable",
      "type": "function"
    },
    {
      "constant": false,
      "inputs": [
        {
          "internalType": "address",
          "name": "_sellerAddress",
          "type": "address"
        }
      ],
      "name": "rateSeller",
      "outputs": [],
      "payable": false,
      "stateMutability": "nonpayable",
      "type": "function"
    },
    {
      "constant": false,
      "inputs": [
        {
          "internalType": "uint256",
          "name": "id",
          "type": "uint256"
        }
      ],
      "name": "deleteCard",
      "outputs": [],
      "payable": false,
      "stateMutability": "nonpayable",
      "type": "function"
    }
  ],
  "bytecode": "0x608060405260008055600060015534801561001957600080fd5b50612557806100296000396000f3fe60806040526004361061009c5760003560e01c80636ba13a82116100645780636ba13a82146101875780636bf693c4146101b25780637f1d08cc146101f45780638dc107681461021d5780639ecce70014610261578063bd6c67561461027d5761009c565b806309f5d7ac146100a157806318b8275a146100ca578063365b98b2146100f357806341ba3379146101355780635e1acf651461015e575b600080fd5b3480156100ad57600080fd5b506100c860048036036100c39190810190611e3f565b6102a8565b005b3480156100d657600080fd5b506100f160048036036100ec9190810190611e68565b61066a565b005b3480156100ff57600080fd5b5061011a60048036036101159190810190611f94565b6108f0565b60405161012c96959493929190612298565b60405180910390f35b34801561014157600080fd5b5061015c60048036036101579190810190611f28565b6109e4565b005b34801561016a57600080fd5b5061018560048036036101809190810190611f94565b610a40565b005b34801561019357600080fd5b5061019c610afd565b6040516101a991906120c7565b60405180910390f35b3480156101be57600080fd5b506101d960048036036101d49190810190611e3f565b610b03565b6040516101eb96959493929190612298565b60405180910390f35b34801561020057600080fd5b5061021b60048036036102169190810190611ea9565b610bf7565b005b34801561022957600080fd5b50610244600480360361023f9190810190611f94565b61130e565b60405161025898979695949392919061220c565b60405180910390f35b61027b60048036036102769190810190611f94565b6114a6565b005b34801561028957600080fd5b50610292611838565b60405161029f91906120c7565b60405180910390f35b6102b061183e565b600460008373ffffffffffffffffffffffffffffffffffffffff1673ffffffffffffffffffffffffffffffffffffffff1681526020019081526020016000206040518060e001604052908160008201548152602001600182018054600181600116156101000203166002900480601f01602080910402602001604051908101604052809291908181526020018280546001816001161561010002031660029004801561039d5780601f106103725761010080835404028352916020019161039d565b820191906000526020600020905b81548152906001019060200180831161038057829003601f168201915b50505050508152602001600282015481526020016003820160009054906101000a900473ffffffffffffffffffffffffffffffffffffffff1673ffffffffffffffffffffffffffffffffffffffff1673ffffffffffffffffffffffffffffffffffffffff168152602001600482015481526020016005820180548060200260200160405190810160405280929190818152602001828054801561045f57602002820191906000526020600020905b81548152602001906001019080831161044b575b5050505050815260200160068201548152505090508060400180518091906001018152505080600460008473ffffffffffffffffffffffffffffffffffffffff1673ffffffffffffffffffffffffffffffffffffffff1681526020019081526020016000206000820151816000015560208201518160010190805190602001906104ea929190611891565b506040820151816002015560608201518160030160006101000a81548173ffffffffffffffffffffffffffffffffffffffff021916908373ffffffffffffffffffffffffffffffffffffffff1602179055506080820151816004015560a0820151816005019080519060200190610562929190611911565b5060c08201518160060155905050600060019050600190505b6001548111610622578273ffffffffffffffffffffffffffffffffffffffff166003600083815260200190815260200160002060050160009054906101000a900473ffffffffffffffffffffffffffffffffffffffff1673ffffffffffffffffffffffffffffffffffffffff1614156106155760036000828152602001908152602001600020600601600081548092919060010191905055505b808060010191505061057b565b7f490c23cb4472f593b5661d96d329f01d41ad2871e497b5be0418996229971bf5838360200151846040015160405161065d93929190612089565b60405180910390a1505050565b600080815480929190600101919050555060606040518060e001604052806000548152602001838152602001600081526020013373ffffffffffffffffffffffffffffffffffffffff1681526020016000815260200182815260200160008152506002600080548152602001908152602001600020600082015181600001556020820151816001019080519060200190610705929190611891565b506040820151816002015560608201518160030160006101000a81548173ffffffffffffffffffffffffffffffffffffffff021916908373ffffffffffffffffffffffffffffffffffffffff1602179055506080820151816004015560a082015181600501908051906020019061077d929190611911565b5060c082015181600601559050506002600080548152602001908152602001600020600460003373ffffffffffffffffffffffffffffffffffffffff1673ffffffffffffffffffffffffffffffffffffffff168152602001908152602001600020600082015481600001556001820181600101908054600181600116156101000203166002900461080f92919061195e565b50600282015481600201556003820160009054906101000a900473ffffffffffffffffffffffffffffffffffffffff168160030160006101000a81548173ffffffffffffffffffffffffffffffffffffffff021916908373ffffffffffffffffffffffffffffffffffffffff1602179055506004820154816004015560058201816005019080546108a19291906119e5565b50600682015481600601559050507f514af2a82370fd69109ef67206736f3880c4f9c15d2f2acd798b782ae37fdc5a60005483336040516108e4939291906120e2565b60405180910390a15050565b6002602052806000526040600020600091509050806000015490806001018054600181600116156101000203166002900480601f0160208091040260200160405190810160405280929190818152602001828054600181600116156101000203166002900480156109a25780601f10610977576101008083540402835291602001916109a2565b820191906000526020600020905b81548152906001019060200180831161098557829003601f168201915b5050505050908060020154908060030160009054906101000a900473ffffffffffffffffffffffffffffffffffffffff16908060040154908060060154905086565b600260008360000151815260200190815260200160002060050181600001519080600181540180825580915050906001820390600052602060002001600090919290919091505550816080018051809190600101815250505050565b60006003600083815260200190815260200160002090506000816007018190555060036000838152602001908152602001600020600080820160009055600182016000610a8d9190611a37565b600282016000610a9d9190611a37565b600382016000905560048201600090556005820160006101000a81549073ffffffffffffffffffffffffffffffffffffffff0219169055600682016000905560078201600090555050600160008154809291906001900391905055505050565b60005481565b6004602052806000526040600020600091509050806000015490806001018054600181600116156101000203166002900480601f016020809104026020016040519081016040528092919081815260200182805460018160011615610100020316600290048015610bb55780601f10610b8a57610100808354040283529160200191610bb5565b820191906000526020600020905b815481529060010190602001808311610b9857829003601f168201915b5050505050908060020154908060030160009054906101000a900473ffffffffffffffffffffffffffffffffffffffff16908060040154908060060154905086565b600160008154809291906001019190505550610c1161183e565b600460003373ffffffffffffffffffffffffffffffffffffffff1673ffffffffffffffffffffffffffffffffffffffff1681526020019081526020016000206040518060e001604052908160008201548152602001600182018054600181600116156101000203166002900480601f016020809104026020016040519081016040528092919081815260200182805460018160011615610100020316600290048015610cfe5780601f10610cd357610100808354040283529160200191610cfe565b820191906000526020600020905b815481529060010190602001808311610ce157829003601f168201915b50505050508152602001600282015481526020016003820160009054906101000a900473ffffffffffffffffffffffffffffffffffffffff1673ffffffffffffffffffffffffffffffffffffffff1673ffffffffffffffffffffffffffffffffffffffff1681526020016004820154815260200160058201805480602002602001604051908101604052809291908181526020018280548015610dc057602002820191906000526020600020905b815481526020019060010190808311610dac575b5050505050815260200160068201548152505090506000816040015190506040518061010001604052806001548152602001868152602001858152602001848152602001600081526020013373ffffffffffffffffffffffffffffffffffffffff1681526020018281526020016001815250600360006001548152602001908152602001600020600082015181600001556020820151816001019080519060200190610e6d929190611891565b506040820151816002019080519060200190610e8a929190611891565b50606082015181600301556080820151816004015560a08201518160050160006101000a81548173ffffffffffffffffffffffffffffffffffffffff021916908373ffffffffffffffffffffffffffffffffffffffff16021790555060c0820151816006015560e08201518160070155905050610f0561183e565b600460003373ffffffffffffffffffffffffffffffffffffffff1673ffffffffffffffffffffffffffffffffffffffff1681526020019081526020016000206040518060e001604052908160008201548152602001600182018054600181600116156101000203166002900480601f016020809104026020016040519081016040528092919081815260200182805460018160011615610100020316600290048015610ff25780601f10610fc757610100808354040283529160200191610ff2565b820191906000526020600020905b815481529060010190602001808311610fd557829003601f168201915b50505050508152602001600282015481526020016003820160009054906101000a900473ffffffffffffffffffffffffffffffffffffffff1673ffffffffffffffffffffffffffffffffffffffff1673ffffffffffffffffffffffffffffffffffffffff16815260200160048201548152602001600582018054806020026020016040519081016040528092919081815260200182805480156110b457602002820191906000526020600020905b8154815260200190600101908083116110a0575b5050505050815260200160068201548152505090506112bf816003600060015481526020019081526020016000206040518061010001604052908160008201548152602001600182018054600181600116156101000203166002900480601f0160208091040260200160405190810160405280929190818152602001828054600181600116156101000203166002900480156111915780601f1061116657610100808354040283529160200191611191565b820191906000526020600020905b81548152906001019060200180831161117457829003601f168201915b50505050508152602001600282018054600181600116156101000203166002900480601f0160208091040260200160405190810160405280929190818152602001828054600181600116156101000203166002900480156112335780601f1061120857610100808354040283529160200191611233565b820191906000526020600020905b81548152906001019060200180831161121657829003601f168201915b5050505050815260200160038201548152602001600482015481526020016005820160009054906101000a900473ffffffffffffffffffffffffffffffffffffffff1673ffffffffffffffffffffffffffffffffffffffff1673ffffffffffffffffffffffffffffffffffffffff168152602001600682015481526020016007820154815250506109e4565b7fb4c33a6a401f72300c2d78746515217417479d3c3c941cb6981b287fc2b3f73b60015487878760003360016040516112fe9796959493929190612120565b60405180910390a1505050505050565b6003602052806000526040600020600091509050806000015490806001018054600181600116156101000203166002900480601f0160208091040260200160405190810160405280929190818152602001828054600181600116156101000203166002900480156113c05780601f10611395576101008083540402835291602001916113c0565b820191906000526020600020905b8154815290600101906020018083116113a357829003601f168201915b505050505090806002018054600181600116156101000203166002900480601f01602080910402602001604051908101604052809291908181526020018280546001816001161561010002031660029004801561145e5780601f106114335761010080835404028352916020019161145e565b820191906000526020600020905b81548152906001019060200180831161144157829003601f168201915b5050505050908060030154908060040154908060050160009054906101000a900473ffffffffffffffffffffffffffffffffffffffff16908060060154908060070154905088565b6000811180156114b857506001548111155b6114c157600080fd5b6114c9611a7f565b600360008381526020019081526020016000206040518061010001604052908160008201548152602001600182018054600181600116156101000203166002900480601f01602080910402602001604051908101604052809291908181526020018280546001816001161561010002031660029004801561158b5780601f106115605761010080835404028352916020019161158b565b820191906000526020600020905b81548152906001019060200180831161156e57829003601f168201915b50505050508152602001600282018054600181600116156101000203166002900480601f01602080910402602001604051908101604052809291908181526020018280546001816001161561010002031660029004801561162d5780601f106116025761010080835404028352916020019161162d565b820191906000526020600020905b81548152906001019060200180831161161057829003601f168201915b5050505050815260200160038201548152602001600482015481526020016005820160009054906101000a900473ffffffffffffffffffffffffffffffffffffffff1673ffffffffffffffffffffffffffffffffffffffff1673ffffffffffffffffffffffffffffffffffffffff16815260200160068201548152602001600782015481525050905060008160a0015190508073ffffffffffffffffffffffffffffffffffffffff166108fc349081150290604051600060405180830381858888f19350505050158015611705573d6000803e3d6000fd5b50816080018051809190600101815250508160036000858152602001908152602001600020600082015181600001556020820151816001019080519060200190611750929190611891565b50604082015181600201908051906020019061176d929190611891565b50606082015181600301556080820151816004015560a08201518160050160006101000a81548173ffffffffffffffffffffffffffffffffffffffff021916908373ffffffffffffffffffffffffffffffffffffffff16021790555060c0820151816006015560e082015181600701559050507f4b478fe60c8315a3a592faa2f0d1dec44f3cdbb27316336c33a3fa4174a8d66d60015483602001518460400151856060015186608001513360405161182b9695949392919061219d565b60405180910390a1505050565b60015481565b6040518060e00160405280600081526020016060815260200160008152602001600073ffffffffffffffffffffffffffffffffffffffff1681526020016000815260200160608152602001600081525090565b828054600181600116156101000203166002900490600052602060002090601f016020900481019282601f106118d257805160ff1916838001178555611900565b82800160010185558215611900579182015b828111156118ff5782518255916020019190600101906118e4565b5b50905061190d9190611ada565b5090565b82805482825590600052602060002090810192821561194d579160200282015b8281111561194c578251825591602001919060010190611931565b5b50905061195a9190611ada565b5090565b828054600181600116156101000203166002900490600052602060002090601f016020900481019282601f1061199757805485556119d4565b828001600101855582156119d457600052602060002091601f016020900482015b828111156119d35782548255916001019190600101906119b8565b5b5090506119e19190611ada565b5090565b828054828255906000526020600020908101928215611a265760005260206000209182015b82811115611a25578254825591600101919060010190611a0a565b5b509050611a339190611ada565b5090565b50805460018160011615610100020316600290046000825580601f10611a5d5750611a7c565b601f016020900490600052602060002090810190611a7b9190611ada565b5b50565b6040518061010001604052806000815260200160608152602001606081526020016000815260200160008152602001600073ffffffffffffffffffffffffffffffffffffffff16815260200160008152602001600081525090565b611afc91905b80821115611af8576000816000905550600101611ae0565b5090565b90565b600081359050611b0e816124cf565b92915050565b600081359050611b23816124e6565b92915050565b600082601f830112611b3a57600080fd5b8135611b4d611b488261232d565b612300565b91508181835260208401935060208101905083856020840282011115611b7257600080fd5b60005b83811015611ba25781611b888882611e2a565b845260208401935060208301925050600181019050611b75565b5050505092915050565b600082601f830112611bbd57600080fd5b8135611bd0611bcb82612355565b612300565b91508082526020830160208301858383011115611bec57600080fd5b611bf783828461247c565b50505092915050565b600082601f830112611c1157600080fd5b8135611c24611c1f82612381565b612300565b91508082526020830160208301858383011115611c4057600080fd5b611c4b83828461247c565b50505092915050565b60006101008284031215611c6757600080fd5b611c72610100612300565b90506000611c8284828501611e2a565b600083015250602082013567ffffffffffffffff811115611ca257600080fd5b611cae84828501611bac565b602083015250604082013567ffffffffffffffff811115611cce57600080fd5b611cda84828501611bac565b6040830152506060611cee84828501611e2a565b6060830152506080611d0284828501611e2a565b60808301525060a0611d1684828501611b14565b60a08301525060c0611d2a84828501611e2a565b60c08301525060e0611d3e84828501611e2a565b60e08301525092915050565b600060e08284031215611d5c57600080fd5b611d6660e0612300565b90506000611d7684828501611e2a565b600083015250602082013567ffffffffffffffff811115611d9657600080fd5b611da284828501611bac565b6020830152506040611db684828501611e2a565b6040830152506060611dca84828501611aff565b6060830152506080611dde84828501611e2a565b60808301525060a082013567ffffffffffffffff811115611dfe57600080fd5b611e0a84828501611b29565b60a08301525060c0611e1e84828501611e2a565b60c08301525092915050565b600081359050611e39816124fd565b92915050565b600060208284031215611e5157600080fd5b6000611e5f84828501611aff565b91505092915050565b600060208284031215611e7a57600080fd5b600082013567ffffffffffffffff811115611e9457600080fd5b611ea084828501611c00565b91505092915050565b600080600060608486031215611ebe57600080fd5b600084013567ffffffffffffffff811115611ed857600080fd5b611ee486828701611c00565b935050602084013567ffffffffffffffff811115611f0157600080fd5b611f0d86828701611c00565b9250506040611f1e86828701611e2a565b9150509250925092565b60008060408385031215611f3b57600080fd5b600083013567ffffffffffffffff811115611f5557600080fd5b611f6185828601611d4a565b925050602083013567ffffffffffffffff811115611f7e57600080fd5b611f8a85828601611c54565b9150509250929050565b600060208284031215611fa657600080fd5b6000611fb484828501611e2a565b91505092915050565b611fc681612422565b82525050565b611fd5816123e6565b82525050565b611fe4816123d4565b82525050565b611ff381612434565b82525050565b61200281612446565b82525050565b6000612013826123b8565b61201d81856123c3565b935061202d81856020860161248b565b612036816124be565b840191505092915050565b600061204c826123ad565b61205681856123c3565b935061206681856020860161248b565b61206f816124be565b840191505092915050565b61208381612418565b82525050565b600060608201905061209e6000830186611fdb565b81810360208301526120b08185612041565b90506120bf604083018461207a565b949350505050565b60006020820190506120dc600083018461207a565b92915050565b60006060820190506120f7600083018661207a565b81810360208301526121098185612008565b90506121186040830184611fbd565b949350505050565b600060e082019050612135600083018a61207a565b81810360208301526121478189612008565b9050818103604083015261215b8188612008565b905061216a606083018761207a565b6121776080830186611fea565b61218460a0830185611fcc565b61219160c0830184611ff9565b98975050505050505050565b600060c0820190506121b2600083018961207a565b81810360208301526121c48188612041565b905081810360408301526121d88187612041565b90506121e7606083018661207a565b6121f4608083018561207a565b61220160a0830184611fcc565b979650505050505050565b600061010082019050612222600083018b61207a565b8181036020830152612234818a612041565b905081810360408301526122488189612041565b9050612257606083018861207a565b612264608083018761207a565b61227160a0830186611fcc565b61227e60c083018561207a565b61228b60e083018461207a565b9998505050505050505050565b600060c0820190506122ad600083018961207a565b81810360208301526122bf8188612041565b90506122ce604083018761207a565b6122db6060830186611fdb565b6122e8608083018561207a565b6122f560a083018461207a565b979650505050505050565b6000604051905081810181811067ffffffffffffffff8211171561232357600080fd5b8060405250919050565b600067ffffffffffffffff82111561234457600080fd5b602082029050602081019050919050565b600067ffffffffffffffff82111561236c57600080fd5b601f19601f8301169050602081019050919050565b600067ffffffffffffffff82111561239857600080fd5b601f19601f8301169050602081019050919050565b600081519050919050565b600081519050919050565b600082825260208201905092915050565b60006123df826123f8565b9050919050565b60006123f1826123f8565b9050919050565b600073ffffffffffffffffffffffffffffffffffffffff82169050919050565b6000819050919050565b600061242d82612458565b9050919050565b600061243f82612418565b9050919050565b600061245182612418565b9050919050565b60006124638261246a565b9050919050565b6000612475826123f8565b9050919050565b82818337600083830152505050565b60005b838110156124a957808201518184015260208101905061248e565b838111156124b8576000848401525b50505050565b6000601f19601f8301169050919050565b6124d8816123d4565b81146124e357600080fd5b50565b6124ef816123e6565b81146124fa57600080fd5b50565b61250681612418565b811461251157600080fd5b5056fea365627a7a7231582048379d5f9ffccf032475f58b244396e14c35eeaa4b4885c56456bf41cce5db8e6c6578706572696d656e74616cf564736f6c63430005100040",
  "source": "pragma solidity ^0.5.0;\r\npragma experimental ABIEncoderV2;\r\n\r\ncontract GiveNTake {\r\n  //string public name;\r\n  uint public usersCount = 0;\r\n  uint public cardsCount = 0;\r\n  \r\n\r\n  struct User {\r\n    uint id;\r\n    string name;\r\n    uint rate;\r\n    address owner;\r\n    uint cardAmount;\r\n    uint[] mycards;\r\n    uint ratingCount;\r\n  }\r\n\r\n  struct Card {\r\n        uint id;\r\n        string headline;\r\n        string content;\r\n        uint price;\r\n        uint soldCount;\r\n        address payable owner;\r\n        uint ownerRate;  \r\n        uint isActive;\r\n    }\r\n\r\n  event UserAdded(\r\n    uint id,\r\n    string name,\r\n    address owner\r\n  );\r\n\r\n  event CardCreated(\r\n        uint id,\r\n        string headline,\r\n        string content,\r\n        uint price,\r\n        uint soldCount,\r\n        address payable owner,\r\n        uint isActive\r\n    );\r\n\r\n  event CardBought(\r\n        uint id,\r\n        string headline,\r\n        string content,\r\n        uint price,\r\n        uint soldCount,\r\n        address payable owner\r\n    );\r\n\r\n  event UserRated(\r\n        address userAddress,\r\n        string name,\r\n        uint rate\r\n    );\r\n\r\n    mapping(uint => User) public users;\r\n    mapping(uint => Card) public cards;\r\n    mapping (address => User) public usersByAddress;\r\n    \r\n\r\n  constructor() public {\r\n    //name = \"Decentragram\";\r\n    // postOffer(\"Example offer\", \"Example content\", 10);\r\n  }\r\n\r\n  function addUser(string memory _name) public {\r\n    // Increment image id\r\n    usersCount ++;\r\n  \r\n    uint[] memory my_cards;\r\n    users[usersCount] = User(usersCount, _name, 0, msg.sender,0, my_cards, 0);\r\n    usersByAddress[msg.sender] = users[usersCount];\r\n\r\n    emit UserAdded(usersCount, _name, msg.sender);\r\n  }\r\n\r\n  function postOffer(string memory _headline, string memory _content, uint _price) public {\r\n        cardsCount ++;\r\n        User memory _owner = usersByAddress[msg.sender];\r\n        uint rate = _owner.rate;\r\n        cards[cardsCount] = Card(cardsCount, _headline, _content, _price, 0, msg.sender,rate, 1);\r\n        User memory curr_user = usersByAddress[msg.sender];\r\n      \r\n        //add new card to user list\r\n        add_cardToUser(curr_user, cards[cardsCount]);\r\n\r\n        emit CardCreated(cardsCount, _headline, _content, _price, 0, msg.sender, 1);\r\n    }\r\n  function add_cardToUser(User memory currUser, Card memory currCard) public{\r\n        //add card to user card list\r\n        users[currUser.id].mycards.push(currCard.id);\r\n        \r\n        //currUser.my_cards[curr_amount] = currCard;\r\n        currUser.cardAmount++;\r\n    }\r\n  function buyOffer(uint _cardId) public payable {\r\n        require(_cardId > 0 && _cardId <= cardsCount);\r\n\r\n        Card memory _card = cards[_cardId];\r\n        address payable _owner = _card.owner;\r\n        \r\n        _owner.transfer(msg.value);\r\n        _card.soldCount ++;\r\n        cards[_cardId] = _card;     // update the card\r\n\r\n        emit CardBought(cardsCount, _card.headline, _card.content, _card.price, _card.soldCount, msg.sender);\r\n\r\n    }\r\n  function rateSeller(address _sellerAddress) public {\r\n        // require(_sellerId > 0 && _sellerId <= usersCount);\r\n      \r\n        // perhaps add that I can only rate a user once\r\n        User memory _user =  usersByAddress[_sellerAddress];\r\n        _user.rate ++;\r\n        usersByAddress[_sellerAddress] = _user;\r\n        \r\n        uint i = 1;\r\n        for (i=1; i<=cardsCount; i++) {\r\n          if (cards[i].owner == _sellerAddress) {\r\n              cards[i].ownerRate++;\r\n          }\r\n        }\r\n        emit UserRated(_sellerAddress, _user.name, _user.rate);\r\n    }\r\n  function deleteCard(uint id) public {\r\n      Card storage toDelete = cards[id];\r\n      toDelete.isActive = 0;\r\n\r\n       /* Card storage toDelete = cards[id];\r\n        require(toDelete.owner == msg.sender);\r\n        User memory card_owner = usersByAddress[toDelete.owner];\r\n        for(uint i = 1; i<card_owner.mycards.length; i++){\r\n          if(card_owner.mycards[i]==id){\r\n            for(uint j = i ; j<card_owner.mycards.length; j++){\r\n              card_owner.mycards[j] = card_owner.mycards[j+1];\r\n            }\r\n          }\r\n        }\r\n        //need to find card id in mycards array, delete it and move everything one to the left\r\n       /* for (uint i = card_owner.id; i<card_owner.mycards.length-1; i++){\r\n            card_owner.mycards[i] = card_owner.mycards[i+1];\r\n        }*/\r\n        //move all cards in cards array \r\n        /*for(uint i = cards[toDelete.id]; i <cards.length()-1; i++){\r\n            cards[i] = cards[i+1];\r\n        }*/\r\n        //delete card_owner.mycards[card_owner.mycards.length-1];\r\n      delete cards[id];\r\n      cardsCount--;\r\n  }    \r\n\r\n}",
  "sourcePath": "C:\\Users\\zivyu\\blockchain proj\\blockchain\\blockchain\\src\\contracts\\GiveNTake.sol",
  "compiler": {
    "name": "solc",
    "version": "0.5.16+commit.9c3226ce.Emscripten.clang"
  },
  "schemaVersion": "3.4.3",
  "updatedAt": "2021-12-19T23:46:04.484Z",
  "networkType": "ethereum",
  "devdoc": {
    "methods": {}
  },
  "userdoc": {
    "methods": {}
  }
}